:100000000C945D000C9485000C9485000C94850084
:100010000C9485000C9485000C9485000C9485004C
:100020000C9485000C9485000C9485000C9485003C
:100030000C9485000C9485000C9485000C9485002C
:100040000C94FC020C9485000C946C030C944603F5
:100050000C9485000C9485000C9485000C9485000C
:100060000C9485000C94850000000008000201003B
:100070000003040700000000000000000000000072
:10008000250028002B0000000000240027002A0083
:10009000040404040404040402020202020203032E
:1000A0000303030301020408102040800102040836
:1000B00010200102040810209E0311241FBECFEF60
:1000C000D8E0DEBFCDBF11E0A0E0B1E0E4EAFAE0A5
:1000D00002C005900D92AE33B107D9F721E0AEE32F
:1000E000B1E001C01D92AC3EB207E1F710E0CDE5F2
:1000F000D0E004C02197FE010E944505CC35D10710
:10010000C9F70E94D7030C9450050C94000090E0AE
:10011000FC01EC55FF4F2491FC01E057FF4F849107
:10012000882399F090E0880F991FFC01EA57FF4F50
:10013000A591B491FC01E458FF4F859194918FB73C
:10014000F894EC91E22BEC938FBF0895CF92DF925D
:10015000FF920F931F93CF93DF931F92CDB7DEB71C
:10016000F82E8B016C018C2D8F198417A0F48091CF
:10017000EA019091EB01D6016D916D01DC01ED91E9
:10018000FC910190F081E02D49830995F80181935C
:100190008F014981E8CF0F90DF91CF911F910F918F
:1001A000FF90DF90CF900895CF92DF92EF92FF9271
:1001B0000F931F93CF93DF936C017A018B01C0E003
:1001C000D0E0CE15DF0589F0D8016D918D01D60103
:1001D000ED91FC910190F081E02DC6010995892BEC
:1001E00011F47E0102C02196ECCFC701DF91CF91BF
:1001F0001F910F91FF90EF90DF90CF900895089599
:1002000080E090E00895FC01538D448D252F30E06F
:10021000842F90E0821B930B541710F0CF96089513
:1002200001970895FC01918D828D981761F0828D60
:10023000DF01A80FB11D5D968C91928D9F5F9F731A
:10024000928F90E008958FEF9FEF0895FC01918DBC
:10025000828D981731F0828DE80FF11D858D90E029
:1002600008958FEF9FEF0895FC01918D228D892FC6
:1002700090E0805C9F4F821B91098F7399270895AE
:1002800088E491E00E94340121E0892B09F420E008
:10029000822F0895FC01848DDF01A80FB11DA35AA0
:1002A000BF4F2C91848D90E001968F739927848F96
:1002B000A689B7892C93A089B1898C9180648C938D
:1002C000938D848D981306C00288F389E02D808178
:1002D0008F7D80830895EF92FF920F931F93CF93AA
:1002E000DF93EC0181E0888F9B8D8C8D981305C086
:1002F000E889F989808185FD24C0F62E0B8D10E0F8
:100300000F5F1F4F0F731127E02E8C8DE8120CC06A
:100310000FB607FCFACFE889F989808185FFF5CF10
:10032000CE010E944A01F1CF8B8DFE01E80FF11D35
:10033000E35AFF4FF0820B8FEA89FB89808180624C
:1003400007C0EE89FF896083E889F989808180642C
:10035000808381E090E0DF91CF911F910F91FF901A
:10036000EF900895CF93DF93EC01888D8823C9F037
:10037000EA89FB89808185FD05C0A889B9898C91AE
:1003800086FD0FC00FB607FCF5CF808185FFF2CF49
:10039000A889B9898C9185FFEDCFCE010E944A01D1
:1003A000E7CFDF91CF91089580E090E0892B29F08D
:1003B0000E94400181110C940000089590E0FC011E
:1003C000E859FF4F3491FC01EC55FF4F2491FC019B
:1003D000E057FF4FE491EE2309F43BC0332339F19A
:1003E000333091F038F43130A9F0323001F584B572
:1003F0008F7D12C0373091F03830A1F03430B9F42D
:10040000809180008F7D03C0809180008F778093E2
:1004100080000DC084B58F7784BD09C08091B00085
:100420008F7703C08091B0008F7D8093B000F0E0A3
:10043000EE0FFF1FE458FF4FA591B4918FB7F894CA
:10044000EC91611103C020952E2301C02E2B2C931B
:100450008FBF089561E08091E7010C94DE0160E0B8
:100460008091E7010C94DE010F931F93CF93DF93EC
:10047000C82FD62F0E942F0205EE11E0D801159645
:100480008D919C911697DC01ED91FC91CF716C2FB1
:1004900060620190F081E02D0995F80185819681D7
:1004A000DC01ED91FC910190F081E02D6D2F09951B
:1004B000DF91CF911F910F910C942A020F931F93FC
:1004C000CF93C82F8B010E942F028091EA01909157
:1004D000EB01DC01ED91FC916C2F6F710190F081CB
:1004E000E02D099541E0B801C8010E94A600CF9116
:1004F0001F910F910C942A02CF93DF93C5EED1E0A8
:10050000188260E089810E94DE016FE080E00E9435
:10051000340261E089810E94DE0160E387E0DF91BF
:10052000CF910C9434020895CF93CFB7F894809173
:100530003E01811124C0EAE9F0E08491EEEAF0E0A6
:100540009491E82FF0E0EE0FFF1FEA57FF4FA591BF
:10055000B491EC91E92321F461E08AE00E94DE018C
:100560008AE00E9487008CB580618CBD8CB5806468
:100570008CBD8DE00E9487008BE00E9487008091F7
:100580003E018F5F80933E01CFBF8CB5837F8CBDD2
:100590008CB58C7F81608CBD8DB58E7F8DBDCF91EC
:1005A00008956EBD00000DB407FEFDCF8EB5089511
:1005B000CF93DF93009779F0FC0101900020E9F7D9
:1005C0003197AF01481B590BBC0188E491E00E94B0
:1005D000D400EC0102C0C0E0D0E042E050E063E2B1
:1005E00071E088E491E00E94D4008C0F9D1FDF91A0
:1005F000CF9108950E944B051F920F920FB60F9254
:1006000011242F933F938F939F93AF93BF93809128
:10061000440190914501A0914601B091470130916C
:10062000430123E0230F2D3720F40196A11DB11DB6
:1006300005C026E8230F0296A11DB11D209343019A
:100640008093440190934501A0934601B0934701E4
:1006500080913F0190914001A0914101B0914201F0
:100660000196A11DB11D80933F0190934001A0937D
:100670004101B0934201BF91AF919F918F913F9102
:100680002F910F900FBE0F901F9018951F920F92F1
:100690000FB60F9211242F933F934F935F936F9355
:1006A0007F938F939F93AF93BF93EF93FF9388E4D0
:1006B00091E00E944A01FF91EF91BF91AF919F910C
:1006C0008F917F916F915F914F913F912F910F90FB
:1006D0000FBE0F901F9018951F920F920FB60F929A
:1006E00011242F938F939F93EF93FF93E0915801E1
:1006F000F09159018081E0915E01F0915F0182FDEE
:1007000012C09081809161018F5F8F73209162018F
:10071000821751F0E0916101F0E0E85BFE4F958FA8
:100720008093610101C08081FF91EF919F918F9132
:100730002F910F900FBE0F901F901895E8E4F1E0F5
:100740001382128288EE93E0A0E0B0E08483958368
:10075000A683B78385E191E09183808385EC90E067
:100760009587848784EC90E09787868780EC90E07B
:10077000918B808B81EC90E0938B828B82EC90E06C
:10078000958B848B86EC90E0978B868B118E128EE6
:10079000138E148EE5EEF1E088E0818387E082839A
:1007A00081E0838380E18483168215820895CF934C
:1007B000DF931F92CDB7DEB7789484B5826084BD95
:1007C00084B5816084BD85B5826085BD85B5816055
:1007D00085BD80916E00816080936E0010928100D3
:1007E000809181008260809381008091810081608E
:1007F000809381008091800081608093800080914F
:10080000B10084608093B1008091B00081608093DA
:10081000B00080917A00846080937A0080917A00A1
:10082000826080937A0080917A00816080937A0060
:1008300080917A00806880937A001092C100E091E4
:100840005801F091590182E08083E0915401F091C8
:1008500055011082E0915601F09157018FEC808391
:1008600010926001E0915C01F0915D0186E080836F
:10087000E0915A01F0915B01808180618083E09179
:100880005A01F0915B01808188608083E0915A0178
:10089000F0915B01808180688083E0915A01F09142
:1008A0005B0180818F7D808385E091E09093EB01F7
:1008B0008093EA018091E6010E9487008091E70120
:1008C0000E94870060E08091E6010E94DE010E94A4
:1008D0002A028091EA019091EB01DC01ED91FC91FB
:1008E0000280F381E02D099560E08091E6010E948D
:1008F000DE010E942F028091EA019091EB01DC0160
:10090000ED91FC910190F081E02D6AE2099500E003
:1009100011E085E0F82EF00E8091EA019091EB0154
:10092000F80161918F01DC01ED91FC910190F08162
:10093000E02D0995F012F0CF0E942A0261E080912B
:10094000E6010E94DE0188E08093E60187E0809363
:10095000E70180E28093E9011092E80160E085E020
:100960000E9434026091E90181E10E9434026091A9
:10097000E90182E10E9434020E947C020E942F025F
:100980008091EA019091EB01DC01ED91FC910190E5
:10099000F081E02D62EE09950E942A0286E291E044
:1009A0000E94D802CDB6DEB68091E901EDB7FEB760
:1009B000E81BF1090FB6F894FEBF0FBEEDBF0DB7EF
:1009C0001EB70F5F1F4F8091E501882399F0BE018C
:1009D0006F5F7F4F87E00E945E028981807341F4E0
:1009E0000FB6F894DEBE0FBECDBE0E94D401DACFA2
:1009F0000E947C02BE016F5F7F4F87E00E945E0213
:100A0000898186FD09C0BE016F5F7F4F87E10E942B
:100A10005E02898180FDE4CF83E391E00E94D802E9
:100A20000E942F028091EA019091EB01DC01ED918F
:100A3000FC910190F081E02D61E609954091E9017A
:100A4000B801C8010E94A6000E942A0260E487E063
:100A50000E943402E12CF12CF801808190E0E8162C
:100A6000F9060CF0BDCFBFEFEB1AFB0AF801EE0D53
:100A7000FF1D6081E0914801F09149010190F081F2
:100A8000E02D88E491E00995E7CFEE0FFF1F059078
:100A9000F491E02D099481E090E0F8940C945005D5
:040AA000F894FFCFF8
:100AA40034431010010B0100000000D102940293A2
:100AB40002000000006B01D4000301B201340112F2
:100AC4000126010D0A004C697374656E696E672E08
:0E0AD4002E2E00476F74207061636B657400F6
:107E0000112484B714BE81FFF0D085E080938100F7
:107E100082E08093C00088E18093C10086E0809377
:107E2000C20080E18093C4008EE0C9D0259A86E02C
:107E300020E33CEF91E0309385002093840096BBD3
:107E4000B09BFECF1D9AA8958150A9F7CC24DD24C4
:107E500088248394B5E0AB2EA1E19A2EF3E0BF2EE7
:107E6000A2D0813461F49FD0082FAFD0023811F036
:107E7000013811F484E001C083E08DD089C08234E0
:107E800011F484E103C0853419F485E0A6D080C0E4
:107E9000853579F488D0E82EFF2485D0082F10E0AE
:107EA000102F00270E291F29000F111F8ED06801E7
:107EB0006FC0863521F484E090D080E0DECF843638
:107EC00009F040C070D06FD0082F6DD080E0C81688
:107ED00080E7D80618F4F601B7BEE895C0E0D1E017
:107EE00062D089930C17E1F7F0E0CF16F0E7DF06D8
:107EF00018F0F601B7BEE89568D007B600FCFDCFD4
:107F0000A601A0E0B1E02C9130E011968C91119780
:107F100090E0982F8827822B932B1296FA010C0160
:107F200087BEE89511244E5F5F4FF1E0A038BF0790
:107F300051F7F601A7BEE89507B600FCFDCF97BE46
:107F4000E89526C08437B1F42ED02DD0F82E2BD052
:107F50003CD0F601EF2C8F010F5F1F4F84911BD097
:107F6000EA94F801C1F70894C11CD11CFA94CF0C13
:107F7000D11C0EC0853739F428D08EE10CD085E9AC
:107F80000AD08FE07ACF813511F488E018D01DD067
:107F900080E101D065CF982F8091C00085FFFCCF94
:107FA0009093C60008958091C00087FFFCCF809118
:107FB000C00084FD01C0A8958091C6000895E0E648
:107FC000F0E098E1908380830895EDDF803219F02E
:107FD00088E0F5DFFFCF84E1DECF1F93182FE3DFCA
:107FE0001150E9F7F2DF1F91089580E0E8DFEE27F6
:047FF000FF270994CA
:027FFE00040479
:0400000300007E007B
:00000001FF