:100000000C94DD000C9405010C9405010C94050181
:100010000C9405010C9405010C9405010C94050148
:100020000C9405010C9405010C941B050C948D0592
:100030000C9405010C9405010C9405010C94050128
:100040000C9405010C9405010C9405010C94050118
:100050000C9405010C9405010C9405010C94D10439
:100060000C9405010C9405010C9405010C940501F8
:100070000C9405010C9405010C9405010C940501E8
:100080000C9405010C9405010C9405010C940501D8
:100090000C9405010C9405010C9405010C940501C8
:1000A0000C9405010C9405010C940501D103D403B3
:1000B000C303C703CB03F503F503F503D803DC0340
:1000C000E003E603EA03F503F00300000002000981
:1000D0000F0000030401000C0000000000000000FD
:1000E000000000000000000000080B0002020201F6
:1000F00000090400000102020000052400100105AF
:1001000024010101042402060524060001070581DB
:100110000310004009040100020A00000007050264
:100120000240000007058302400000040309041296
:10013000010002EF02014041233680000101020369
:100140000141726475696E6F204C4C4300417264CA
:1001500075696E6F204C656F6E6172646F00000090
:100160000000250028002B002E00310000000000B8
:10017000240027002A002D00300004040404040396
:100180000405020202020403020202020606060637
:10019000060604040202020404040802011040805E
:1001A000401020408040800802040180402010025E
:1001B0000110801020404020FA0711241FBECFEF0D
:1001C000DAE0DEBFCDBF11E0A0E0B1E0EEE9F3E19F
:1001D00002C005900D92A235B107D9F721E0A2E542
:1001E000B1E001C01D92A93CB207E1F710E0CDEDEE
:1001F000D0E004C02197FE010E94C209CC3DD10786
:10020000C9F70E941B080C94CD090C94000090E0E3
:10021000FC01E756FE4F2491FC01E658FE4F849105
:10022000882399F090E0880F991FFC01E459FE4F54
:10023000A591B491FC01E25AFE4F859194918FB73C
:10024000F894EC91E22BEC938FBF0895CF92DF925C
:10025000FF920F931F93CF93DF931F92CDB7DEB71B
:10026000F82E8B016C018C2D8F198417A0F48091CE
:10027000C7019091C801D6016D916D01DC01ED912E
:10028000FC910190F081E02D49830995F80181935B
:100290008F014981E8CF0F90DF91CF911F910F918E
:1002A000FF90DF90CF900895FC0180917101811142
:1002B00003C08FEF9FEF08959FB7F89482E080937B
:1002C000E9002091F20030E01216130614F421E048
:1002D00030E02115310559F0289884E680937001AB
:1002E0008091F10080838091F200882319F09FBFF4
:1002F000C90108958BE68093E800F9CF2FB7F894F1
:1003000083E08093E9009091E800892F807295FF47
:1003100004C09091F20080E4891B2FBF0895809162
:10032000680181110DC082E08093640184E08093B4
:100330006501109267011092660181E08093680167
:1003400084E691E008953FB7F89480916001909120
:100350006101A0916201B091630126B5A89B05C01F
:100360002F3F19F00196A11DB11D3FBFBA2FA92F34
:10037000982F8827820F911DA11DB11DBC01CD01B1
:1003800042E0660F771F881F991F4A95D1F708959D
:10039000CF92DF92EF92FF920E94A3016B017C014A
:1003A0000E94A301DC01CB018C199D09AE09BF0994
:1003B000883E9340A105B10598F3FF90EF90DF9040
:1003C000CF900895409155015091560120915301CD
:1003D0003091540142175307B4F49091E80095709E
:1003E000E1F39091E80092FD19C08093F1008091B3
:1003F00055019091560101968F739927892B19F415
:100400008EEF8093E80080915501909156010196FE
:10041000909356018093550181E0089580E00895FE
:10042000DF92EF92FF920F931F93CF93DF93D82E1B
:100430008A017B01E40EF51EEB01CE15DF0571F09C
:10044000D7FE03C0FE01849101C088810E94E201B1
:1004500021968111F2CF8FEF9FEF01C0C801DF918C
:10046000CF911F910F91FF90EF90DF9008950F9320
:100470001F93CF93DF931F92CDB7DEB782E08983BE
:1004800042E450E069EE70E080E80E9410020E94B1
:100490008F01DC0112960D911C9113970115110526
:1004A00069F0D801ED91FC910280F381E02DBE014D
:1004B0006F5F7F4FC801099597FF07C089810F9033
:1004C000DF91CF911F910F910895F801008511855B
:1004D000E5CF615030F02091F100FC0120830196BE
:1004E000F8CF289884E6809370010895CF92DF9228
:1004F000EF92FF920F931F93CF93DF936C017A01DA
:100500008B01C0E0D0E0CE15DF0589F0D8016D91F8
:100510008D01D601ED91FC910190F081E02DC60195
:100520000995892B11F47E0102C02196ECCFC701F9
:10053000DF91CF911F910F91FF90EF90DF90CF90BF
:1005400008958F929F92AF92BF92CF92DF92EF92D7
:10055000FF920F931F93CF93DF936C015B017A019E
:1005600080911201882309F456C08091710188237B
:1005700009F451C08091590180FF05C08091E000CD
:1005800082608093E000E70110E00AEF83E0882EAC
:100590009AE3992E2097B1F10E947E01811105C046
:1005A0000150C9F10E94C801F5CF282F30E0C217D1
:1005B000D3070CF48C2F4FB7F8948092E9009091F8
:1005C000E80095FF1DC0282F30E0C21BD30BF501BA
:1005D000982F915020F081918093F100FACFA20ED4
:1005E000B31E112319F09092E80009C08091E80031
:1005F00085FD06C09092E80011E0209709F010E018
:100600004FBFC8CF1111C8CF5D9884E680935A01BF
:100610001E141F0444F081E090E0F601938382836E
:1006200080E090E001C0C701DF91CF911F910F9151
:10063000FF90EF90DF90CF90BF90AF909F908F9002
:100640000895CF93DF931F92CDB7DEB76983DC01A6
:10065000ED91FC910280F381E02D41E050E0BE017C
:100660006F5F7F4F09950F90DF91CF91089583E0E1
:100670008093E9008091F200882319F08AE3809347
:10068000E80008950E947E0190E00895CF93DF93E3
:100690001F92CDB7DEB7FC018485958597FD05C017
:1006A0002FEF3FEF358724870BC0CE0101960E94C4
:1006B0005401019719F4898190E002C08FEF9FEFF8
:1006C0000F90DF91CF9108950F931F93CF93DF93F6
:1006D0001F92CDB7DEB78C01FC018485958597FF0D
:1006E0000EC0CE0101960E945401019719F4298190
:1006F00030E002C02FEF3FEFF80135872487F80183
:10070000848595850F90DF91CF911F910F9108956A
:10071000FC018485958597FD0BC09FB7F89482E016
:100720008093E9008091F2009FBF90E001960895C8
:100730009FB7F89482E08093E9008091F2009FBF18
:1007400090E00895089580E090E00895362F90E0BD
:10075000FC01E653FF4F4491FC01E756FE4F249104
:10076000FC01E658FE4F8491882309F451C04423CC
:10077000E1F150E0FA013197EF30F105B0F5EA5AB6
:10078000FF4F0C94C209909180009F7707C0909111
:1007900080009F7D03C090918000977F90938000A0
:1007A00024C094B59F7702C094B59F7D94BD1DC0B1
:1007B000909190009F7707C0909190009F7D03C01B
:1007C00090919000977F909390000FC09091C000FF
:1007D0009F7703C09091C0009F7D9093C00005C09B
:1007E0009091C200977F9093C200E82FF0E0EE0F47
:1007F000FF1FE25AFE4FA591B4918FB7F894EC9188
:10080000311103C020952E2301C02E2B2C938FBFB6
:10081000089561E08091C4010C94A60360E080918A
:10082000C4010C94A6030F931F93CF93DF93C82F9B
:10083000D62F0E940E0402EC11E0D80115968D917E
:100840009C911697DC01ED91FC91CF716C2F606249
:100850000190F081E02D0995F80185819681DC01F8
:10086000ED91FC910190F081E02D6D2F0995DF91C4
:10087000CF911F910F910C9409040F931F93CF9365
:10088000C82F8B010E940E048091C7019091C8016E
:10089000DC01ED91FC916C2F6F710190F081E02DE6
:1008A000099541E0B801C8010E942601CF911F912E
:1008B0000F910C940904CF93DF93C2ECD1E018821E
:1008C00060E089810E94A6036FE080E00E9413042B
:1008D00061E089810E94A60360E387E0DF91CF9108
:1008E0000C9413040895CF93CFB7F89480915201DC
:1008F000811124C0EBE8F1E08491EAEAF1E09491FF
:10090000E82FF0E0EE0FFF1FE459FE4FA591B491E0
:10091000EC91E92321F461E081E10E94A60381E1E9
:100920000E9407018CB580618CBD8CB580648CBD44
:100930008FE00E94070180E10E940701809152012F
:100940008F5F80935201CFBF8CB5837F8CBD8CB5F8
:100950008C7F81608CBD8DB58E7F8DBDCF910895CC
:100960006EBD00000DB407FEFDCF8EB50895BC012D
:10097000009791F0FC0101900020E9F73197AF0159
:10098000481B590BE0917201F09173010280F381D1
:10099000E02D82E791E0099480E090E008950E94C4
:1009A000C8091F920F920FB60F9211242F933F93F5
:1009B0008F939F93AF93BF9380915C0190915D0162
:1009C000A0915E01B0915F0130915B0123E0230FA4
:1009D0002D3720F40196A11DB11D05C026E8230F77
:1009E0000296A11DB11D20935B0180935C01909341
:1009F0005D01A0935E01B0935F01809160019091D1
:100A00006101A0916201B09163010196A11DB11D28
:100A10008093600190936101A0936201B0936301A0
:100A2000BF91AF919F918F913F912F910F900FBEEA
:100A30000F901F9018951F920F920FB60F921124CE
:100A40008F939F938091E1009091E100937F909329
:100A5000E10083FF0FC01092E90091E09093EB005A
:100A60001092EC0092E39093ED001092710198E0E7
:100A70009093F00082FF20C093E09093E900909162
:100A8000F200992319F09AE39093E80090915A01AB
:100A9000992339F090915A01915090935A019923DA
:100AA00089F190917001992339F0909170019150E2
:100AB00090937001992341F184FF10C08091E2006E
:100AC0008E7E81608093E2008091E1008F7E809332
:100AD000E100809159018E7E806111C080FF16C0B7
:100AE0008091E2008E7E80618093E2008091E1003F
:100AF0008E7E8093E100809159018E7E816080938B
:100B0000590104C05D9ACDCF289AD6CF9F918F917D
:100B10000F900FBE0F901F9018951F920F920FB657
:100B20000F921124CF92DF92EF92FF920F931F93B7
:100B30002F933F934F935F936F937F938F939F93E5
:100B4000AF93BF93EF93FF93CF93DF93CDB7DEB710
:100B50006C97DEBFCDBF1092E9008091E80083FF63
:100B6000EDC168E0CE0145960E94690282EF809354
:100B7000E8008D8987FF05C09091E80090FFFCCFC9
:100B800003C09EEF9093E800982F907609F0C6C0BE
:100B90009E892F89188D91110CC0803829F480917D
:100BA00058018093F10002C01092F1001092F10000
:100BB00048C1422F50E0512B913051F4811141C175
:100BC0004130510509F03DC1809158018D7F0BC026
:100BD000933061F4811135C14130510509F031C1C3
:100BE000809158018260809358012BC1953041F467
:100BF0008091E80080FFFCCF20682093E30021C1B2
:100C0000963009F05FC0EB8CFC8C1092E9001092DA
:100C1000560110925501123091F510925401109224
:100C200053010E94370299E0BE016F5F7F4FDB01E5
:100C3000E92F1D92EA95E9F799831A8391E09E8343
:100C400090EA98879AEF9987209155013091560143
:100C5000275F3F4F3C832B838D831092E9001092D6
:100C6000560110925501F0925401E092530149E06F
:100C700050E080E00E9410020E943702E2C0F09231
:100C80005401E09253010E948F01DC011296ED9015
:100C9000FC901397E114F10409F4C0C0D701ED9161
:100CA000FC910480F581E02DBE016B5E7F4FC70192
:100CB0000995009719F00CF0C4C0C7C0F701E08493
:100CC000F184E8CF973009F4C0C0983021F481E076
:100CD0008093F100B6C0993009F0B3C0837009F079
:100CE000B4C0EEE1F1E081E021E036E390819923A8
:100CF00061F08093E9002093EB0091919093EC00D8
:100D00003093ED008F5F873089F78EE78093EA009C
:100D10001092EA008F898093710193C08B8D9C8D16
:100D20001092E900109256011092550190935401CF
:100D300080935301898D811156C08E899D89913A86
:100D400059F4813209F081C047E050E06BE071E076
:100D500080E00E94100275C0913209F076C08332A3
:100D600089F4888D90E0982F88272F89822BA0E026
:100D7000B0E08093070190930801A0930901B0931C
:100D80000A015FC0803269F48091E80082FFFCCFE5
:100D900067E08BE091E00E9469028BEF8093E800AE
:100DA00006C0823209F04DC08F8980931201809174
:100DB0005701882319F0EEEFFAE002C0E0E0F8E016
:100DC00080910B0190910C01A0910D01B0910E0149
:100DD000803B9440A105B10509F07BC080911201D0
:100DE00080FF93C076C00E948F01DC0112960D91A6
:100DF0001C9113970115110541F1D801ED91FC915A
:100E00000190F081E02DBE016B5E7F4FC801099516
:100E1000811117C0F80100851185ECCF113009F45C
:100E20004EC0133091F48F89882309F445C0823075
:100E300081F440E860E18DE491E00E94BD078823E1
:100E400021F08EEF8093E80079C081E28093EB007F
:100E500075C0813029F440E86BE081E491E0EDCF8A
:100E6000833099F70E948F01DC011296ED90FC907F
:100E700013978E010F5F1F4F6801E114F10479F0A1
:100E8000D701ED91FC910680F781E02DB801C701F3
:100E90000995080F111DF701E084F184EECFD80108
:100EA0001C92F60101900020E9F73197BF016C19FF
:100EB0007D0940E0C601C1CF6BE271E002C06FE284
:100EC00071E06115710509F2FB01449150E080E881
:100ED00040CF0FB6F894A895809160008861809308
:100EE0006000109260000FBEA895EE3F2AE0F20766
:100EF00039F08091FE0A9091FF0A91838083A1CFFF
:100F00001092FF0A1092FE0A9CCFEE3F8AE0F8078B
:100F100031F0808191819093FF0A8093FE0A87E7E8
:100F200097E7918380839BE088E10FB6F894A895BA
:100F3000809360000FBE9093600083CF6C960FB6D5
:100F4000F894DEBF0FBECDBFDF91CF91FF91EF913F
:100F5000BF91AF919F918F917F916F915F914F91D1
:100F60003F912F911F910F91FF90EF90DF90CF90C5
:100F70000F900FBE0F901F901895CF92DF92EF92B7
:100F8000FF920F931F93CF93DF931F92CDB7DEB7DE
:100F9000182F062FE42E862F880F8E5F99830E94CC
:100FA000E20183E00E94E201F12EC12E9981D92E47
:100FB0008C2D8F19801798F4F601E7FE02C08491FA
:100FC00001C080810E94E201182F80E00E94E201AE
:100FD0008123FFEFCF1ADF0A8111EACF01C081E040
:100FE0000F90DF91CF911F910F91FF90EF90DF90C5
:100FF000CF900895E2E7F1E01382128288EE93E049
:10100000A0E0B0E084839583A683B78388E291E073
:10101000918380838FEF9FEF95878487E2ECF1E0E7
:1010200088E0818387E0828381E0838380E1848319
:10103000168215820895CF93DF931F92CDB7DEB746
:10104000789484B5826084BD84B5816084BD85B5A3
:10105000826085BD85B5816085BD80916E008160AF
:1010600080936E0010928100809181008260809355
:101070008100809181008160809381008091800057
:1010800081608093800080919100826080939100C4
:1010900080919100816080939100809190008160A7
:1010A000809390008091C10084608093C100809102
:1010B000C10082608093C1008091C10081608093F3
:1010C000C1008091C30081608093C3008091C00003
:1010D00082608093C0008091C20081608093C200D2
:1010E00080917A00846080937A0080917A00826097
:1010F00080937A0080917A00816080937A00809159
:101100007A00806880937A001092710110925801E1
:10111000109259018091D70081608093D70080EAB6
:101120008093D80089B5806189BD89B5826089BD09
:1011300009B400FEFDCF0E94C8018091D8008F7CC9
:1011400080618093D8008091E000807F8093E000F0
:101150008091E1008E7E8093E1008DE08093E2003B
:10116000559A209AEEEFFFE7859194918B3F9C4D25
:1011700019F481E0809357018FEF9FEF90937F01E7
:1011800080937E0185E091E09093C8018093C70130
:101190008091C3010E9407018091C4010E94070150
:1011A00060E08091C3010E94A6030E94090480911F
:1011B000C7019091C801DC01ED91FC910280F3819F
:1011C000E02D099560E08091C3010E94A6030E9472
:1011D0000E048091C7019091C801DC01ED91FC9152
:1011E0000190F081E02D6AE2099500E011E095E0C0
:1011F000F92EF00E8091C7019091C801F80161911C
:101200008F01DC01ED91FC910190F081E02D0995B9
:10121000F012F0CF0E94090461E08091C3010E94A6
:10122000A60388E08093C30187E08093C40180E235
:101230008093C6011092C50160E085E00E9413040E
:101240006091C60181E10E9413046091C60182E1B0
:101250000E9413040E945B040E940E048091C70147
:101260009091C801DC01ED91FC910190F081E02D9D
:1012700062EE09950E94090486E391E00E94B7049A
:1012800083E491E00E94B70480E0A82E80E0B82EAD
:10129000CDB6DEB68091C601EDB7FEB7E81BF10909
:1012A0000FB6F894FEBF0FBEEDBF0DB71EB70F5FB0
:1012B0001F4F8091C2018823B1F0BE016F5F7F4F45
:1012C00087E00E943D048981807359F40FB6F89439
:1012D000DEBE0FBECDBEA114B104D1F20E9400004B
:1012E000D7CF0E945B04BE016F5F7F4F87E00E94F3
:1012F0003D04898186FD09C0BE016F5F7F4F87E194
:101300000E943D04898180FDE1CF86E491E00E9446
:10131000B70483E491E00E94B7040E940E04809118
:10132000C7019091C801DC01ED91FC910190F08121
:10133000E02D61E609954091C601B801C8010E94FF
:1013400026010E94090460E487E00E941304E12C56
:10135000F12CF801808190E0E816F9060CF0B6CF88
:10136000BFEFEB1AFB0AF801EE0DFF1D6081E09163
:101370007201F09173010190F081E02D82E791E01C
:101380000995E7CFEE0FFF1F0590F491E02D09942A
:0E13900081E090E0F8940C94CD09F894FFCF22
:10139E0034431010011701FFFFFFFF00E1000000B2
:1013AE0000000000000000B0047304720400C1804D
:1013BE0081000000000000002103A1024203370358
:1013CE008803460364034C697374656E696E672EF9
:1013DE002E2E000D0A00476F74207061636B6574CA
:0213EE000000FD
:00000001FF
