:100000000C945D000C9485000C9485000C94850084
:100010000C9485000C9485000C9485000C9485004C
:100020000C9485000C9485000C9485000C9485003C
:100030000C9485000C9485000C9485000C9485002C
:100040000C9494030C9485000C9462030C943C0370
:100050000C9485000C9485000C9485000C9485000C
:100060000C9485000C94850000000008000201003B
:100070000003040700000000000000000000000072
:10008000250028002B0000000000240027002A0083
:10009000040404040404040402020202020203032E
:1000A0000303030301020408102040800102040836
:1000B0001020010204081020DE0311241FBECFEF20
:1000C000D8E0DEBFCDBF11E0A0E0B1E0E4E0FBE0AE
:1000D00002C005900D92A634B107D9F722E0A6E43C
:1000E000B1E001C01D92A431B207E1F710E0CDE507
:1000F000D0E004C02197FE010E947505CC35D107E0
:10010000C9F70E9417040C9480050C94000090E03D
:10011000FC01EC55FF4F2491FC01E057FF4F849107
:10012000882399F090E0880F991FFC01EA57FF4F50
:10013000A591B491FC01E458FF4F859194918FB73C
:10014000F894EC91E22BEC938FBF08950F931F93DB
:10015000CF93DF93162F082FEC018C2F801B811774
:1001600068F480911202909113026991DC01ED9183
:10017000FC910190F081E02D0995EFCFDF91CF91B7
:100180001F910F910895CF92DF92EF92FF920F93FC
:100190001F93CF93DF936C017A018B01C0E0D0E015
:1001A000CE15DF0589F0D8016D918D01D601ED9155
:1001B000FC910190F081E02DC6010995892B11F485
:1001C0007E0102C02196ECCFC701DF91CF911F9134
:1001D0000F91FF90EF90DF90CF900895089580E009
:1001E00090E00895FC01538D448D252F30E0842F3D
:1001F00090E0821B930B541710F0CF96089501974F
:100200000895FC01918D828D981761F0828DDF0138
:10021000A80FB11D5D968C91928D9F5F9F73928FF9
:1002200090E008958FEF9FEF0895FC01918D828DEE
:10023000981731F0828DE80FF11D858D90E00895BB
:100240008FEF9FEF0895FC01918D228D892F90E013
:10025000805C9F4F821B91098F739927089580E7D7
:1002600091E00E94230121E0892B09F420E0822FF4
:100270000895FC01848DDF01A80FB11DA35ABF4F63
:100280002C91848D90E001968F739927848FA68995
:10029000B7892C93A089B1898C9180648C93938DBC
:1002A000848D981306C00288F389E02D80818F7DAC
:1002B00080830895EF92FF920F931F93CF93DF9364
:1002C000EC0181E0888F9B8D8C8D981305C0E889A7
:1002D000F989808185FD24C0F62E0B8D10E00F5F1B
:1002E0001F4F0F731127E02E8C8DE8120CC00FB634
:1002F00007FCFACFE889F989808185FFF5CFCE0127
:100300000E943901F1CF8B8DFE01E80FF11DE35AF8
:10031000FF4FF0820B8FEA89FB898081806207C0E2
:10032000EE89FF896083E889F98980818064808310
:1003300081E090E0DF91CF911F910F91FF90EF90BE
:100340000895CF93DF93EC01888D8823C9F0EA8963
:10035000FB89808185FD05C0A889B9898C9186FDBE
:100360000FC00FB607FCF5CF808185FFF2CFA889BB
:10037000B9898C9185FFEDCFCE010E943901E7CF7D
:10038000DF91CF91089580E090E0892B29F00E94C1
:100390002F0181110C940000089590E0FC01E859B0
:1003A000FF4F3491FC01EC55FF4F2491FC01E057C5
:1003B000FF4FE491EE2309F43BC0332339F133308E
:1003C00091F038F43130A9F0323001F584B58F7DE9
:1003D00012C0373091F03830A1F03430B9F4809148
:1003E00080008F7D03C0809180008F778093800094
:1003F0000DC084B58F7784BD09C08091B0008F7720
:1004000003C08091B0008F7D8093B000F0E0EE0FCC
:10041000FF1FE458FF4FA591B4918FB7F894EC916A
:10042000611103C020952E2301C02E2B2C938FBF6A
:10043000089561E080910F020C94CD0160E08091FD
:100440000F020C94CD010F931F93CF93DF93C82F0E
:10045000D62F0E941E020DE012E0D80115968D9154
:100460009C911697DC01ED91FC91CF716C2F60622D
:100470000190F081E02D0995F80185819681DC01DC
:10048000ED91FC910190F081E02D6D2F0995DF91A8
:10049000CF911F910F910C9419020F931F93CF933B
:1004A000DF931F92CDB7DEB70E941E020DE012E06F
:1004B000D80115968D919C911697DC01ED91FC91D8
:1004C0000190F081E02D67E00995F8018581968122
:1004D000DC01ED91FC910190F081E02D60E0099547
:1004E00089830E94190289810F90DF91CF911F911A
:1004F0000F910895CF93C82F0E941E02809112027F
:1005000090911302DC01ED91FC916C2F6F71606290
:100510000190F081E02D099565E082E091E00E9474
:10052000A600CF910C94190260E080910E020C9409
:10053000CD01CF93DF93CDE0D2E018820E949402E8
:100540006FE080E00E94230261E089810E94CD017A
:1005500060E387E0DF91CF910C9423023FB7F894DA
:1005600080914C0190914D01A0914E01B0914F01AD
:1005700026B5A89B05C02F3F19F00196A11DB11DFE
:100580003FBFBA2FA92F982F8827820F911DA11D39
:10059000B11DBC01CD0142E0660F771F881F991F76
:1005A0004A95D1F708950895CF93CFB7F8948091E5
:1005B0004601811124C0EAE9F0E08491EEEAF0E01E
:1005C0009491E82FF0E0EE0FFF1FEA57FF4FA5913F
:1005D000B491EC91E92321F461E08AE00E94CD011D
:1005E0008AE00E9487008CB580618CBD8CB58064E8
:1005F0008CBD8DE00E9487008BE00E948700809177
:1006000046018F5F80934601CFBF8CB5837F8CBD41
:100610008CB58C7F81608CBD8DB58E7F8DBDCF916B
:1006200008956EBD00000DB407FEFDCF8EB5089590
:10063000CF93DF93009779F0FC0101900020E9F758
:100640003197AF01481B590BBC0180E791E00E9434
:10065000C300EC0102C0C0E0D0E042E050E063E241
:1006600071E080E791E00E94C3008C0F9D1FDF9135
:10067000CF9108950E947B051F920F920FB60F92A3
:1006800011242F933F934F935F936F937F938F9397
:100690009F93AF93BF93EF93FF9380E791E00E9406
:1006A0003901FF91EF91BF91AF919F918F917F9110
:1006B0006F915F914F913F912F910F900FBE0F90CF
:1006C0001F9018951F920F920FB60F9211242F931F
:1006D0008F939F93EF93FF93E0918001F0918101BD
:1006E0008081E0918601F091870182FD12C09081A6
:1006F000809189018F5F8F7320918A01821751F059
:10070000E0918901F0E0E059FE4F958F80938901D7
:1007100001C08081FF91EF919F918F912F910F9058
:100720000FBE0F901F9018951F920F920FB60F9249
:1007300011242F933F938F939F93AF93BF938091F7
:10074000480190914901A0914A01B0914B0130912B
:10075000470123E0230F2D3720F40196A11DB11D81
:1007600005C026E8230F0296A11DB11D2093470165
:100770008093480190934901A0934A01B0934B01A3
:1007800080914C0190914D01A0914E01B0914F018B
:100790000196A11DB11D80934C0190934D01A09332
:1007A0004E01B0934F01BF91AF919F918F913F91B7
:1007B0002F910F900FBE0F901F901895E0E7F1E07A
:1007C0001382128288EE93E0A0E0B0E084839583E8
:1007D000A683B78385E191E09183808385EC90E0E7
:1007E0009587848784EC90E09787868780EC90E0FB
:1007F000918B808B81EC90E0938B828B82EC90E0EC
:10080000958B848B86EC90E0978B868B118E128E65
:10081000138E148EEDE0F2E088E0818387E082831E
:1008200081E0838380E18483168215820895789421
:1008300084B5826084BD84B5816084BD85B58260E5
:1008400085BD85B5816085BD80916E008160809396
:100850006E001092810080918100826080938100FF
:10086000809181008160809381008091800081600F
:10087000809380008091B10084608093B10080916A
:10088000B00081608093B00080917A008460809392
:100890007A0080917A00826080937A0080917A0059
:1008A000816080937A0080917A00806880937A00DA
:1008B0001092C100E0918001F091810182E080837B
:1008C000E0917C01F0917D011082E0917E01F09138
:1008D0007F018FEC808310928801E0918401F09178
:1008E000850186E08083E0918201F091830180811F
:1008F00080618083E0918201F09183018081886032
:100900008083E0918201F0918301808180688083FF
:10091000E0918201F091830180818F7D808388E066
:1009200080930E0287E080930F0280E28093110291
:100930001092100280E091E09093130280931202D3
:1009400088E00E94870080910F020E9487000E9429
:1009500094020E9419028091120290911302DC010C
:10096000ED91FC910280F381E02D099586E291E002
:100970000E9418036091100285E00E94230260919A
:10098000110281E10E9423026091110282E10E9422
:1009900023020E9499020E941E02809112029091ED
:1009A0001302DC01ED91FC910190F081E02D62EEEB
:1009B00009950E9419020E9494026AE184E00E9453
:1009C000230261E080910E020E94CD0181E08093BC
:1009D000500181E680935101C1E0D1E68AE00E9496
:1009E0007A0280E10E947A020E944D0280910D02FB
:1009F000882331F00E944D028073C1F310920D02E2
:100A00000E949402C0930D026EE080E00E942302D7
:100A10000E941E028091120290911302DC01ED915E
:100A2000FC910190F081E02D61EE09950E94190280
:100A30000E941E028091120290911302DC01ED913E
:100A4000FC910190F081E02D60EA0995609111021E
:100A500080E591E00E94A6000E94190261E0809169
:100A60000E020E94CD0180910D02882331F00E9478
:100A70004D028073C1F30E94990285E391E00E94C8
:100A80001803809151018A3719F4D093510103C0A2
:100A90008F5F809351010E94AE024B015C0188EE92
:100AA000C82E83E0D82EE12CF12C0E94AE02DC018E
:100AB000CB0188199909AA09BB09883E9340A10571
:100AC000B10558F0B1E0CB1AD108E108F10828EEE1
:100AD000820E23E0921EA11CB11CC114D104E104BA
:100AE000F10419F70E94C30179CFEE0FFF1F0590A3
:100AF000F491E02D099481E090E0F8940C94800545
:040B0000F894FFCF97
:100B04000B013443101001000000001103D402D380
:100B140002000000005A01C300F200A101230101F8
:100B24000115010D0A00426567696E6E696E6720E2
:100B34002E2E2E200046696E6973686564207365E5
:060B44006E64696E67009B
:00000001FF
