:100000000C94E3000C940B010C940B010C940B0169
:100010000C940B010C940B010C940B010C940B0130
:100020000C940B010C940B010C94AA050C941C0667
:100030000C940B010C940B010C940B010C940B0110
:100040000C940B010C940B010C940B010C940B0100
:100050000C940B010C940B010C940B010C942A03CF
:100060000C940B010C940B010C940B010C940B01E0
:100070000C940B010C940B010C940B010C940B01D0
:100080000C940B010C940B010C940B010C940B01C0
:100090000C940B010C940B010C940B010C940B01B0
:1000A0000C940B010C940B010C940B01B502B802DB
:1000B000A702AB02AF02D902D902D902BC02C00228
:1000C000C402CA02CE02D902D40200000002000912
:1000D0000F0000030401000C0000000000000000FD
:1000E00000000000000000000007060504010008F1
:1000F0000A0B0C0D09080B000202020100090400A2
:100100000001020200000524001001052401010184
:10011000042402060524060001070581031000409F
:1001200009040100020A0000000705020240000065
:10013000070583024000000403090412010002EFD6
:100140000201404123368000010102030141726433
:1001500075696E6F204C4C430041726475696E6F17
:10016000204C656F6E6172646F0000000000250016
:1001700028002B002E003100000000002400270082
:100180002A002D00300004040404040304050202C4
:100190000202040302020202060606060606040420
:1001A00002020204040408020110408040102040B2
:1001B000804080080204018040201002011080105D
:1001C00020404020850B11241FBECFEFDAE0DEBFB8
:1001D000CDBF11E0A0E0B1E0E4E1F8E102C005909C
:1001E0000D92A437B107D9F722E0A4E7B1E001C02E
:1001F0001D92A737B207E1F710E0C3EED0E004C0CC
:100200002197FE010E94FD0BC23ED107C9F70E9453
:1002100074080C94080C0C940000CF93DF931F9289
:10022000CDB7DEB76983DC01ED91FC910280F381EB
:10023000E02D41E050E0BE016F5F7F4F09950F90C8
:10024000DF91CF91089583E08093E9008091F200DF
:10025000882319F08AE38093E8000895FC018485DF
:10026000958597FD0BC09FB7F89482E08093E900D5
:100270008091F2009FBF90E0019608959FB7F89497
:1002800082E08093E9008091F2009FBF90E00895A2
:10029000089580E090E008953FB7F89480917A0146
:1002A00090917B01A0917C01B0917D0126B5A89B26
:1002B00005C02F3F19F00196A11DB11D3FBFBA2FF8
:1002C000A92F982F8827820F911DA11DB11DBC0158
:1002D000CD0142E0660F771F881F991F4A95D1F71D
:1002E00008958F929F92AF92BF92CF92DF92EF923A
:1002F000FF926B017C010E944C014B015C01C11417
:10030000D104E104F104F1F00E944C01DC01CB01C5
:1003100088199909AA09BB09883E9340A105B1052E
:1003200070F321E0C21AD108E108F10888EE880EC6
:1003300083E0981EA11CB11CC114D104E104F10496
:1003400019F7DDCFFF90EF90DF90CF90BF90AF9087
:100350009F908F9008952FB7F894609176017091D7
:10036000770180917801909179012FBF08950895C8
:100370006EBD00000DB407FEFDCF8EB508958F92BF
:100380009F92AF92BF92CF92DF92EF92FF920F9324
:100390001F93CF93DF935C016B017A0180910D0174
:1003A000882309F45BC08091C601882309F456C0F4
:1003B0008091C40180FF05C08091E000826080933D
:1003C000E000E70110E00AEF83E0882E9AE3992E1F
:1003D0002097D9F10E94990581110AC0015009F4B2
:1003E0003DC061E070E080E090E00E947101F0CFDC
:1003F000282F30E0C217D3070CF48C2F4FB7F89496
:100400008092E9009091E80095FF1DC0282F30E010
:10041000C21BD30BF601982F915020F0819180934D
:10042000F100FACFC20ED31E112319F09092E8000A
:1004300009C08091E80085FD06C09092E80011E0B7
:10044000209709F010E04FBFC3CF1111C3CF5D98C3
:1004500084E68093C5011E141F0444F081E090E0FF
:10046000F5019383828380E090E001C0C701DF91B2
:10047000CF911F910F91FF90EF90DF90CF90BF90A1
:10048000AF909F908F9008950E94990590E00895F5
:10049000CF93DF931F92CDB7DEB7FC01848595859E
:1004A00097FD05C02FEF3FEF358724870BC0CE01A6
:1004B00001960E946F05019719F4898190E002C0AE
:1004C0008FEF9FEF0F90DF91CF9108950F931F93C0
:1004D000CF93DF931F92CDB7DEB78C01FC018485EB
:1004E000958597FF0EC0CE0101960E946F0501977A
:1004F00019F4298130E002C02FEF3FEFF801358772
:100500002487F801848595850F90DF91CF911F9105
:100510000F910895362F90E0FC01E653FF4F449170
:10052000FC01EB55FE4F2491FC01EA57FE4F8491EC
:10053000882309F451C04423E1F150E0FA013197D6
:10054000EF30F105B0F5EA5AFF4F0C94FD0B909196
:1005500080009F7707C0909180009F7D03C090919D
:100560008000977F9093800024C094B59F7702C04D
:1005700094B59F7D94BD1DC0909190009F7707C05A
:10058000909190009F7D03C090919000977F9093F1
:1005900090000FC09091C0009F7703C09091C00061
:1005A0009F7D9093C00005C09091C200977F90936B
:1005B000C200E82FF0E0EE0FFF1FE659FE4FA591B5
:1005C000B4918FB7F894EC91311103C020952E238C
:1005D00001C02E2B2C938FBF0895CF93CFB7F894E3
:1005E00080917401811124C0E7E9F1E08491E6EB88
:1005F000F1E09491E82FF0E0EE0FFF1FE858FE4F76
:10060000A591B491EC91E92321F461E081E10E948C
:100610008A0281E10E9497048CB580618CBD8CB503
:1006200080648CBD8FE00E94970480E10E94970453
:10063000809174018F5F80937401CFBF8CB5837FED
:100640008CBD8CB58C7F81608CBD8DB58E7F8DBD52
:10065000CF9108951F920F920FB60F9211242F93EE
:100660003F938F939F93AF93BF9380917601909127
:100670007701A0917801B09179013091750123E063
:10068000230F2D3720F40196A11DB11D05C026E8CA
:10069000230F0296A11DB11D209375018093760151
:1006A00090937701A0937801B093790180917A01BA
:1006B00090917B01A0917C01B0917D010196A11DDB
:1006C000B11D80937A0190937B01A0937C01B0933C
:1006D0007D01BF91AF919F918F913F912F910F908D
:1006E0000FBE0F901F90189580916E0281110DC062
:1006F00082E080936A0284E080936B0210926D0224
:1007000010926C0281E080936E028AE692E0089576
:10071000409168025091690220916602309167020F
:1007200042175307B4F49091E8009570E1F390916B
:10073000E80092FD19C08093F100809168029091C9
:10074000690201968F739927892B19F48EEF809394
:10075000E800809168029091690201969093690285
:100760008093680281E0089580E00895DF92EF921F
:10077000FF920F931F93CF93DF93D82E8A017B01B3
:10078000E40EF51EEB01CE15DF0571F0D7FE03C0B8
:10079000FE01849101C088810E9488032196811105
:1007A000F2CF8FEF9FEF01C0C801DF91CF911F9172
:1007B0000F91FF90EF90DF9008950F931F93CF93C9
:1007C000DF931F92CDB7DEB782E0898342E450E029
:1007D00065EF70E080E80E94B6030E947403DC01BC
:1007E00012960D911C9113970115110569F0D8010E
:1007F000ED91FC910280F381E02DBE016F5F7F4F90
:10080000C801099597FF07C089810F90DF91CF91AB
:100810001F910F910895F80100851185E5CF615072
:1008200030F02091F100FC0120830196F8CF289848
:1008300084E6809376020895CF92DF92EF92FF9242
:100840000F931F93CF93DF936C017A018B01C0E06C
:10085000D0E0CE15DF0589F0D8016D918D01D6016C
:10086000ED91FC910190F081E02DC6010995892B55
:1008700011F47E0102C02196ECCFC701DF91CF9128
:100880001F910F91FF90EF90DF90CF9008950E94FD
:10089000030C61E0809161020C948A0260E0809117
:1008A00061020C948A020F931F93CF93DF93C82F9A
:1008B000D62F0E944E040FE512E0D80115968D91B7
:1008C0009C911697DC01ED91FC91CF716C2F6062C9
:1008D0000190F081E02D0995F80185819681DC0178
:1008E000ED91FC910190F081E02D6D2F0995DF9144
:1008F000CF911F910F910C94490460E080916002A8
:100900000C948A02CF93DF93CFE5D2E018820E9445
:100910007D046FE080E00E94530461E089810E94C1
:100920008A0260E387E0DF91CF910C94530490E05A
:10093000FC01EB55FE4F2491FC01EA57FE4F8491D8
:10094000882399F090E0880F991FFC01E858FE4F2A
:10095000A591B491FC01E659FE4F859194918FB712
:10096000F894EC91E22BEC938FBF0895CF92DF9235
:10097000FF920F931F93CF93DF931F92CDB7DEB7F4
:10098000F82E8B016C018C2D8F198417A0F48091A7
:10099000640290916502D6016D916D01DC01ED91CB
:1009A000FC910190F081E02D49830995F801819334
:1009B0008F014981E8CF0F90DF91CF911F910F9167
:1009C000FF90DF90CF9008950F931F93CF93C82F80
:1009D0008B010E944E048091640290916502DC01BB
:1009E000ED91FC916C2F6F710190F081E02D0995D4
:1009F00041E0B801C8010E94B604CF911F910F9148
:100A00000C944904CF93DF931F92CDB7DEB7BE019C
:100A10006F5F7F4F87E00E94E40489810F90DF9130
:100A2000CF910895CF93DF931F92CDB7DEB70E9489
:100A3000020586FD0AC0BE016F5F7F4F87E10E94FD
:100A4000E40489818095817001C081E00F90DF917D
:100A5000CF91089580915F02882331F00E940205B2
:100A6000807321F00E94820480E0089581E008955F
:100A70000F931F93CF93DF93162F082FEC018C2F2A
:100A8000801B811768F480916402909165026991DE
:100A9000DC01ED91FC910190F081E02D0995EFCF03
:100AA000DF91CF911F910F910895CF93C82F0E948E
:100AB0004E048091640290916502DC01ED91FC91FD
:100AC0006C2F6F7160620190F081E02D099565E0F7
:100AD0008EE091E00E943805CF910C944904FC010E
:100AE0008091C601811103C08FEF9FEF08959FB7DA
:100AF000F89482E08093E9002091F20030E0121631
:100B0000130614F421E030E02115310559F028983E
:100B100084E6809376028091F10080838091F200D8
:100B2000882319F09FBFC90108958BE68093E800E0
:100B3000F9CF2FB7F89483E08093E9009091E80013
:100B4000892F807295FF04C09091F20080E4891B88
:100B50002FBF08951F920F920FB60F9211248F93FB
:100B60009F938091E1009091E100937F9093E10049
:100B700083FF0FC01092E90091E09093EB00109278
:100B8000EC0092E39093ED001092C60198E09093F0
:100B9000F00082FF20C093E09093E9009091F20072
:100BA000992319F09AE39093E8009091C501992355
:100BB00039F09091C50191509093C501992389F125
:100BC00090917602992339F090917602915090930A
:100BD0007602992341F184FF10C08091E2008E7E5D
:100BE00081608093E2008091E1008F7E8093E1003C
:100BF0008091C4018E7E806111C080FF16C08091FB
:100C0000E2008E7E80618093E2008091E1008E7E22
:100C10008093E1008091C4018E7E81608093C40145
:100C200004C05D9ACDCF289AD6CF9F918F910F9017
:100C30000FBE0F901F9018951F920F920FB60F9234
:100C40001124CF92DF92EF92FF920F931F932F9375
:100C50003F934F935F936F937F938F939F93AF9344
:100C6000BF93EF93FF93CF93DF93CDB7DEB76C972E
:100C7000DEBFCDBF1092E9008091E80083FFEDC197
:100C800068E0CE0145960E940F0482EF8093E80051
:100C90008D8987FF05C09091E80090FFFCCF03C0CD
:100CA0009EEF9093E800982F907609F0C6C09E8939
:100CB0002F89188D91110CC0803829F48091C301BF
:100CC0008093F10002C01092F1001092F10048C12F
:100CD000422F50E0512B913051F4811141C14130EC
:100CE000510509F03DC18091C3018D7F0BC0933048
:100CF00061F4811135C14130510509F031C1809154
:100D0000C30182608093C3012BC1953041F480916F
:100D1000E80080FFFCCF20682093E30021C19630DB
:100D200009F05FC0EB8CFC8C1092E9001092690214
:100D300010926802123091F51092670210926602CA
:100D40000E94DD0399E0BE016F5F7F4FDB01E92F59
:100D50001D92EA95E9F799831A8391E09E8390EAC0
:100D600098879AEF99872091680230916902275FEE
:100D70003F4F3C832B838D831092E90010926902D0
:100D800010926802F0926702E092660249E050E039
:100D900080E00E94B6030E94DD03E2C0F092670289
:100DA000E09266020E947403DC011296ED90FC90C2
:100DB0001397E114F10409F4C0C0D701ED91FC913F
:100DC0000480F581E02DBE016B5E7F4FC701099560
:100DD000009719F00CF0C4C0C7C0F701E084F1849B
:100DE000E8CF973009F4C0C0983021F481E08093B7
:100DF000F100B6C0993009F0B3C0837009F0B4C0F7
:100E0000EEE1F1E081E021E036E39081992361F0A9
:100E10008093E9002093EB0091919093EC00309344
:100E2000ED008F5F873089F78EE78093EA0010929C
:100E3000EA008F898093C60193C08B8D9C8D1092A0
:100E4000E900109269021092680290936702809301
:100E50006602898D811156C08E899D89913A59F417
:100E6000813209F081C047E050E066E071E080E047
:100E70000E94B60375C0913209F076C0833289F4BE
:100E8000888D90E0982F88272F89822BA0E0B0E0F2
:100E90008093020190930301A0930401B093050194
:100EA0005FC0803269F48091E80082FFFCCF67E088
:100EB00086E091E00E940F048BEF8093E80006C06B
:100EC000823209F04DC08F8980930D018091C2015B
:100ED000882319F0EEEFFAE002C0E0E0F8E080913C
:100EE000060190910701A0910801B0910901803B92
:100EF0009440A105B10509F07BC080910D0180FFF0
:100F000093C076C00E947403DC0112960D911C916F
:100F100013970115110541F1D801ED91FC91019054
:100F2000F081E02DBE016B5E7F4FC80109958111F4
:100F300017C0F80100851185ECCF113009F44EC0BF
:100F4000133091F48F89882309F445C0823081F4ED
:100F500040E860E189E591E00E94480B882321F098
:100F60008EEF8093E80079C081E28093EB0075C03A
:100F7000813029F440E86BE08DE491E0EDCF8330DF
:100F800099F70E947403DC011296ED90FC90139780
:100F90008E010F5F1F4F6801E114F10479F0D70152
:100FA000ED91FC910680F781E02DB801C70109950C
:100FB000080F111DF701E084F184EECFD8011C92D7
:100FC000F60101900020E9F73197BF016C197D0906
:100FD00040E0C601C1CF67E371E002C06BE371E09E
:100FE0006115710509F2FB01449150E080E840CFA2
:100FF0000FB6F894A8958091600088618093600096
:10100000109260000FBEA895EE3F2AE0F20739F07B
:101010008091FE0A9091FF0A91838083A1CF109264
:10102000FF0A1092FE0A9CCFEE3F8AE0F80731F0EB
:10103000808191819093FF0A8093FE0A87E797E76A
:10104000918380839BE088E10FB6F894A895809304
:1010500060000FBE9093600083CF6C960FB6F8943B
:10106000DEBF0FBECDBFDF91CF91FF91EF91BF915A
:10107000AF919F918F917F916F915F914F913F9130
:101080002F911F910F91FF90EF90DF90CF900F90D5
:101090000FBE0F901F9018956115710579F0FB0137
:1010A00001900020E9F73197AF01461B570BDC0197
:1010B000ED91FC910280F381E02D099480E090E0B5
:1010C0000895CF93DF93BC0187EC91E00E944C0818
:1010D000EC0165E471E087EC91E00E944C088C0F14
:1010E0009D1FDF91CF910895CF93DF93CDB7DEB7EA
:1010F000A1970FB6F894DEBF0FBECDBF789484B52C
:10110000826084BD84B5816084BD85B5826085BD03
:1011100085B5816085BD80916E00816080936E0091
:101120001092810080918100826080938100809183
:101130008100816080938100809180008160809334
:101140008000809191008260809391008091910055
:1011500081608093910080919000816080939000E5
:101160008091C10084608093C1008091C100826041
:101170008093C1008091C10081608093C100809103
:10118000C30081608093C3008091C000826080931F
:10119000C0008091C20081608093C20080917A007B
:1011A000846080937A0080917A00826080937A00D4
:1011B00080917A00816080937A0080917A008068C3
:1011C00080937A001092C6011092C3011092C4015C
:1011D0008091D70081608093D70080EA8093D80007
:1011E00089B5806189BD89B5826089BD09B400FE79
:1011F000FDCF61E070E080E090E00E94710180919D
:10120000D8008F7C80618093D8008091E000807F3F
:101210008093E0008091E1008E7E8093E1008DE07C
:101220008093E200559A209AEEEFFFE78591949122
:101230008B3F9C4D19F481E08093C20110925B02B8
:1012400010925C0210925D0210925E0210921902DE
:1012500010921A0210921B0210921C020E94AB0103
:101260006B017C014B015C0188EB880E8BE0981EC2
:10127000A11CB11C0E94AB016C157D058E059F055C
:1012800028F086169706A806B906A0F787EC91E025
:1012900090935A02809359020BE110E0F0900D01F7
:1012A0006AE070E080E090E00E947101F1100AC0F5
:1012B0000150110939F064E670E080E090E00E948E
:1012C0007101ECCFE0915902F0915A028FEF9FEF3C
:1012D000958784870E94AB016093190270931A026C
:1012E00080931B0290931C0266E371E08091590287
:1012F00090915A020E944C080E94AB016B017C0144
:101300004B015C01AAE08A0E911CA11CB11C0E9439
:10131000AB016C157D058E059F0528F08616970696
:10132000A806B906A0F781E080932D028FEF9FEF0A
:101330009093D4018093D30188E08093600287E08A
:101340008093610280E2809363021092620280E0E7
:1013500091E0909365028093640288E00E94970474
:10136000809161020E9497040E947D040E944904BA
:101370008091640290916502DC01ED91FC91028004
:10138000F381E02D099588E491E00E946108609165
:10139000620285E00E9453046091630281E10E9431
:1013A00053046091630282E10E9453040E9482040C
:1013B0000E944E048091640290916502DC01ED91DF
:1013C000FC910190F081E02D62EE09950E944904A4
:1013D0000E947D046AE184E00E94530461E08091F0
:1013E00060020E948A0286E08093A20183E48093D7
:1013F000A30181E38093A4018AE38093A50180E3A4
:101400008093A60195E39093A7018093A8015AE0E9
:10141000452E512C612C712C64E6C62ED12C7AE01D
:10142000A72EB12CE0E08E2EE0E09E2E8AE00E94F6
:10143000550580E10E945505EAEEF0E08491909117
:101440007B0083FB222420F8312C910145E0220F00
:10145000331F4A95E1F79F7D292B20937B008770EE
:10146000806480937C0080917A00806480937A000D
:1014700080917A0086FDFCCF2091780080917900E0
:1014800030E0382BA4E6B0E00E94DA0BDC01CB019F
:101490002AE0B595A795979587952A95D1F77C0170
:1014A0009C01AD0119A28E010F5D1F4FCA01B90148
:1014B000A30192010E94B80B605DD8016E938D016B
:1014C000211531054105510589F7BD0187EC91E0F2
:1014D0000E944C0865E471E087EC91E00E944C08A2
:1014E000C701B6010E94E90B605D6093A601C701C8
:1014F000B5010E94E90B605D6093A701805D809358
:10150000A8010E94020580915F02882331F00E94A9
:1015100002058073C1F310925F020E947D04B1E066
:10152000B0935F026EE080E00E9453040E944E047C
:101530008091640290916502DC01ED91FC91019033
:10154000F081E02D61EE09950E9449040E944E044D
:101550008091640290916502DC01ED91FC91019013
:10156000F081E02D60EA09956091630282EA91E0E2
:101570000E9438050E94490461E0809160020E9447
:101580008A020E942A058111FCCF87E591E00E9422
:1015900061080E94AB0160939E0170939F0180934C
:1015A000A0019093A1010E941205811115C00E9413
:1015B000AB0100919E0110919F012091A0013091FB
:1015C000A101DC01CB01801B910BA20BB30B893E67
:1015D0009340A105B10538F30E942A05811104C08A
:1015E0000E94120581110DC068EE73E080E090E06A
:1015F0000E9471018114910409F418CF0E94000027
:1016000015CF88E691E00E9461080E944E04809107
:10161000640290916502DC01ED91FC910190F081F2
:10162000E02D61E60995409163026EE771E0CB0120
:101630000E94B6040E94490460E487E00E945304BB
:1016400080918001813351F4809182018F3411F4B3
:1016500060E001C061E082E00E948A0200E010E0E8
:1016600080917E0190E0081719070CF0BDCF0F5F45
:101670001F4FF801E258FE4F6081E091C701F091E1
:10168000C8010190F081E02D87EC91E00995E8CF49
:10169000CF92DF92EF92FF920F931F93CF93DF933E
:1016A0001F92CDB7DEB7182F062FE42E862F880F96
:1016B0008E5F99830E94880383E00E948803F12E45
:1016C000C12E9981D92E8C2D8F19801798F4F6018F
:1016D000E7FE02C0849101C080810E948803182F18
:1016E00080E00E9488038123FFEFCF1ADF0A811177
:1016F000EACF01C081E00F90DF91CF911F910F9150
:10170000FF90EF90DF90CF900895E7ECF1E0138227
:10171000128288EE93E0A0E0B0E084839583A683F4
:10172000B78388E291E0918380838FEF9FEF958765
:101730008487E7E1F2E0168217821086118612860E
:1017400013861486158616861786108A118A128AC1
:10175000138A148A158AEFE5F2E088E0818387E036
:10176000828381E0838380E18483168215820895D9
:10177000A1E21A2EAA1BBB1BFD010DC0AA1FBB1F95
:10178000EE1FFF1FA217B307E407F50720F0A21B07
:10179000B30BE40BF50B661F771F881F991F1A9474
:1017A00069F760957095809590959B01AC01BD019E
:1017B000CF010895A29FB001B39FC001A39F700DF8
:1017C000811D1124911DB29F700D811D1124911D49
:1017D0000895AA1BBB1B51E107C0AA1FBB1FA61778
:1017E000B70710F0A61BB70B881F991F5A95A9F7CA
:1017F00080959095BC01CD010895EE0FFF1F0590D7
:10180000F491E02D099481E090E0F8940C94080C98
:04181000F894FFCF7A
:101814001701FFFFFFFF00E1000000000000344358
:1018240010100100000000B801ED02B70100C180F2
:1018340081000000000000000D01BF0144022301EB
:101844002E0148026602564D4450565F317C315F8A
:10185400564D4450560D0A00426567696E6E696EB6
:1018640067202E2E2E200046696E697368656420F9
:1018740073656E64696E6700476F74207061636B93
:041884006574000087
:00000001FF
