:100000000C945D000C9485000C9485000C94850084
:100010000C9485000C9485000C9485000C9485004C
:100020000C9485000C9485000C9485000C9485003C
:100030000C9485000C9485000C9485000C9485002C
:100040000C94E7030C9485000C94B5030C948F0377
:100050000C9485000C9485000C9485000C9485000C
:100060000C9485000C94850000000008000201003B
:100070000003040700000000000000000000000072
:10008000250028002B0000000000240027002A0083
:10009000040404040404040402020202020203032E
:1000A0000303030301020408102040800102040836
:1000B0001020010204081020310411241FBECFEFCC
:1000C000D8E0DEBFCDBF11E0A0E0B1E0EEEFFDE093
:1000D00002C005900D92A235B107D9F722E0A2E542
:1000E000B1E001C01D92A434B207E1F710E0CDE504
:1000F000D0E004C02197FE010E94F206CC35D10762
:10010000C9F70E946A040C94FD060C94000090E06C
:10011000FC01EC55FF4F2491FC01E057FF4F849107
:10012000882399F090E0880F991FFC01EA57FF4F50
:10013000A591B491FC01E458FF4F859194918FB73C
:10014000F894EC91E22BEC938FBF0895CF92DF925D
:10015000FF920F931F93CF93DF931F92CDB7DEB71C
:10016000F82E8B016C018C2D8F198417A0F48091CF
:10017000420290914302D6016D916D01DC01ED9137
:10018000FC910190F081E02D49830995F80181935C
:100190008F014981E8CF0F90DF91CF911F910F918F
:1001A000FF90DF90CF9008950F931F93CF93DF932D
:1001B000162F082FEC018C2F801B811768F480917B
:1001C0004202909143026991DC01ED91FC91019012
:1001D000F081E02D0995EFCFDF91CF911F910F9125
:1001E0000895CF92DF92EF92FF920F931F93CF93D8
:1001F000DF936C017A018B01C0E0D0E0CE15DF0502
:1002000089F0D8016D918D01D601ED91FC9101909D
:10021000F081E02DC6010995892B11F47E0102C001
:100220002196ECCFC701DF91CF911F910F91FF90E5
:10023000EF90DF90CF900895089580E090E00895CA
:10024000FC01538D448D252F30E0842F90E0821BDC
:10025000930B541710F0CF96089501970895FC0161
:10026000918D828D981761F0828DDF01A80FB11DED
:100270005D968C91928D9F5F9F73928F90E0089511
:100280008FEF9FEF0895FC01918D828D981731F0CB
:10029000828DE80FF11D858D90E008958FEF9FEF1F
:1002A0000895FC01918D228D892F90E0805C9F4FF5
:1002B000821B91098F739927089580EA91E00E942B
:1002C000510121E0892B09F420E0822F0895FC01DF
:1002D000848DDF01A80FB11DA35ABF4F2C91848DCF
:1002E00090E001968F739927848FA689B7892C9304
:1002F000A089B1898C9180648C93938D848D98139F
:1003000006C00288F389E02D80818F7D8083089567
:10031000EF92FF920F931F93CF93DF93EC0181E055
:10032000888F9B8D8C8D981305C0E889F989808111
:1003300085FD24C0F62E0B8D10E00F5F1F4F0F734D
:100340001127E02E8C8DE8120CC00FB607FCFACFF7
:10035000E889F989808185FFF5CFCE010E94670188
:10036000F1CF8B8DFE01E80FF11DE35AFF4FF082B4
:100370000B8FEA89FB898081806207C0EE89FF8943
:100380006083E889F98980818064808381E090E0DE
:10039000DF91CF911F910F91FF90EF900895CF9330
:1003A000DF93EC01888D8823C9F0EA89FB8980817D
:1003B00085FD05C0A889B9898C9186FD0FC00FB64F
:1003C00007FCF5CF808185FFF2CFA889B9898C9190
:1003D00085FFEDCFCE010E946701E7CFDF91CF917E
:1003E000089580E090E0892B29F00E945D01811141
:1003F0000C940000089590E0FC01E859FF4F3491FF
:10040000FC01EC55FF4F2491FC01E057FF4FE491B4
:10041000EE2309F43BC0332339F1333091F038F443
:100420003130A9F0323001F584B58F7D12C03730FC
:1004300091F03830A1F03430B9F4809180008F7D94
:1004400003C0809180008F77809380000DC084B5B9
:100450008F7784BD09C08091B0008F7703C08091F1
:10046000B0008F7D8093B000F0E0EE0FFF1FE458E6
:10047000FF4FA591B4918FB7F894EC91611103C02F
:1004800020952E2301C02E2B2C938FBF089561E061
:1004900080913F020C94FB0160E080913F020C943C
:1004A000FB010F931F93CF93DF93C82FD62F0E948A
:1004B0004C020DE312E0D80115968D919C91169790
:1004C000DC01ED91FC91CF716C2F60620190F081A5
:1004D000E02D0995F80185819681DC01ED91FC9173
:1004E0000190F081E02D6D2F0995DF91CF911F9143
:1004F0000F910C9447020F931F93CF93C82F8B013A
:100500000E944C028091420290914302DC01ED91E5
:10051000FC916C2F6F710190F081E02D099541E005
:10052000B801C8010E94A600CF911F910F910C94B1
:100530004702CF93DF931F92CDB7DEB7BE016F5F47
:100540007F4F87E00E947B0289810F90DF91CF91DE
:100550000895CF93DF931F92CDB7DEB70E94990223
:1005600086FD0AC0BE016F5F7F4F87E10E947B025C
:1005700089818095817001C081E00F90DF91CF91DA
:100580000895CF93C82F0E944C028091420290910F
:100590004302DC01ED91FC916C2F6F716062019060
:1005A000F081E02D099565E082E091E00E94D400A1
:1005B000CF910C94470260E080913E020C94FB01C5
:1005C000CF93DF93CDE3D2E018820E94DB026FE08D
:1005D00080E00E94510261E089810E94FB0160E39A
:1005E00087E0DF91CF910C94510280913D028823E6
:1005F00031F00E949902807321F00E94E00280E0B5
:10060000089581E008953FB7F89480915401909146
:100610005501A0915601B091570126B5A89B05C080
:100620002F3F19F00196A11DB11D3FBFBA2FA92F71
:10063000982F8827820F911DA11DB11DBC01CD01EE
:1006400042E0660F771F881F991F4A95D1F70895DA
:100650000895CF93CFB7F89480915201811124C0AF
:10066000EAE9F0E08491EEEAF0E09491E82FF0E01E
:10067000EE0FFF1FEA57FF4FA591B491EC91E923CC
:1006800021F461E08AE00E94FB018AE00E94870079
:100690008CB580618CBD8CB580648CBD8DE00E9472
:1006A00087008BE00E948700809152018F5F8093CA
:1006B0005201CFBF8CB5837F8CBD8CB58C7F8160A0
:1006C0008CBD8DB58E7F8DBDCF9108956EBD000020
:1006D0000DB407FEFDCF8EB50895009769F0FC01BB
:1006E00001900020E9F73197AF01481B590BBC017D
:1006F00080EA91E00C94F10080E090E00895CF93BF
:10070000DF930E946D03EC0183E291E00E946D0390
:100710008C0F9D1FDF91CF9108950E94F8061F92C4
:100720000F920FB60F9211242F933F934F935F9325
:100730006F937F938F939F93AF93BF93EF93FF93A9
:1007400080EA91E00E946701FF91EF91BF91AF9124
:100750009F918F917F916F915F914F913F912F91D9
:100760000F900FBE0F901F9018951F920F920FB60B
:100770000F9211242F938F939F93EF93FF93E09108
:10078000B001F091B1018081E091B601F091B70123
:1007900082FD12C090818091B9018F5F8F7320918B
:1007A000BA01821751F0E091B901F0E0E056FE4F36
:1007B000958F8093B90101C08081FF91EF919F9146
:1007C0008F912F910F900FBE0F901F9018951F9231
:1007D0000F920FB60F9211242F933F938F939F93F5
:1007E000AF93BF938091580190915901A0915A0104
:1007F000B0915B013091530123E0230F2D3720F49A
:100800000196A11DB11D05C026E8230F0296A11D6A
:10081000B11D209353018093580190935901A093E7
:100820005A01B0935B018091540190915501A091C0
:100830005601B09157010196A11DB11D809354013D
:1008400090935501A0935601B0935701BF91AF917A
:100850009F918F913F912F910F900FBE0F901F90FE
:100860001895E0EAF1E01382128288EE93E0A0E0AE
:10087000B0E084839583A683B78385E191E091837B
:10088000808385EC90E09587848784EC90E097875F
:10089000868780EC90E0918B808B81EC90E0938B4D
:1008A000828B82EC90E0958B848B86EC90E0978B2A
:1008B000868B118E128E138E148EEDE3F2E088E09B
:1008C000818387E0828381E0838380E18483168251
:1008D00015820895CF93DF93CDB7DEB7A1970FB6FA
:1008E000F894DEBF0FBECDBF789484B5826084BD1E
:1008F00084B5816084BD85B5826085BD85B5816024
:1009000085BD80916E00816080936E0010928100A1
:10091000809181008260809381008091810081605C
:10092000809381008091800081608093800080911D
:10093000B10084608093B1008091B00081608093A9
:10094000B00080917A00846080937A0080917A0070
:10095000826080937A0080917A00816080937A002F
:1009600080917A00806880937A001092C100E091B3
:10097000B001F091B10182E08083E091AC01F0918F
:10098000AD011082E091AE01F091AF018FEC808358
:100990001092B801E091B401F091B50116E0108316
:1009A000E091B201F091B301808180618083E09198
:1009B000B201F091B301808188608083E091B2013F
:1009C000F091B301808180688083E091B201F09161
:1009D000B30180818F7D808388E080933E0287E031
:1009E00080933F0280E2809341021092400280E0B7
:1009F00091E0909343028093420288E00E94870036
:100A000080913F020E9487000E94DB020E94470201
:100A10008091420290914302DC01ED91FC910280B1
:100A2000F381E02D099586E291E00E947F036091B9
:100A3000400285E00E9451026091410281E10E94E2
:100A400051026091410282E10E9451020E94E00243
:100A50000E944C028091420290914302DC01ED9190
:100A6000FC910190F081E02D62EE09950E94470211
:100A70000E94DB026AE184E00E94510261E0809101
:100A80003E020E94FB011093800183E48093810168
:100A900081E3809382018AE38093830180E38093E2
:100AA000840195E3909385018093860130E4332E91
:100AB0004AE0442E512C612C712C222423948AE08C
:100AC0000E94C10280E10E94C10230927C008091AC
:100AD0007A00806480937A0080917A0086FDFCCF52
:100AE000209178008091790030E0382BA4E6B0E0C6
:100AF0000E94CF06DC01CB012AE0B595A79597951A
:100B000087952A95D1F77C019C01AD0119A28E0130
:100B10000F5D1F4FCA01B901A30192010E94AD06EA
:100B2000605DF80162938F01211531054105510582
:100B300089F7CF010E946D0383E291E00E946D036B
:100B4000C70164E670E00E94DE06605D6093840188
:100B5000C7016AE070E00E94DE06605D6093850177
:100B6000805D809386010E94990280913D028823D6
:100B700031F00E9499028073C1F310923D020E94ED
:100B8000DB0220923D026EE080E00E9451020E9452
:100B90004C028091420290914302DC01ED91FC9164
:100BA0000190F081E02D61EE09950E9447020E94BC
:100BB0004C028091420290914302DC01ED91FC9144
:100BC0000190F081E02D60EA09956091410280E892
:100BD00091E00E94D4000E94470261E080913E02B1
:100BE0000E94FB010E94F5028111FCCF85E391E098
:100BF0000E947F032FB7F89480915801909159017A
:100C0000A0915A01B0915B012FBF80937C0190931A
:100C10007D01A0937E01B0937F010E94A902811102
:100C20001CC02FB7F8948091580190915901A09160
:100C30005A01B0915B012FBF40917C0150917D0121
:100C400060917E0170917F01841B950BA60BB70B01
:100C5000893E9340A105B10500F30E94F502811180
:100C600004C00E94A902811131C00E9403034B01FC
:100C70005C0188EE93E0A0E0B0E06C017D010E9491
:100C80000303DC01CB0188199909AA09BB09883E35
:100C90009340A105B10588F0F1E0CF1AD108E10831
:100CA000F10828EE820E23E0921EA11CB11CC11493
:100CB000D104E104F10419F706C0D701C601CD281B
:100CC000CE28CF28D1F60E94F101F9CE86E491E03A
:100CD0000E947F030E944C02809142029091430245
:100CE000DC01ED91FC910190F081E02D61E6099528
:100CF000409141026CE571E0CB010E94A6000E9488
:100D0000470260E487E00E94510280915E018133D6
:100D100051F4809160018F3411F460E001C061E012
:100D200082E00E94FB0100E010E080915C0190E015
:100D3000081719070CF099CF0F5F1F4FF801E45AFD
:100D4000FE4F6081E091A001F091A1010190F0813E
:100D5000E02D80EA91E00995E8CFA1E21A2EAA1BC6
:100D6000BB1BFD010DC0AA1FBB1FEE1FFF1FA2175B
:100D7000B307E407F50720F0A21BB30BE40BF50B58
:100D8000661F771F881F991F1A9469F760957095E1
:100D9000809590959B01AC01BD01CF010895A29F64
:100DA000B001B39FC001A39F700D811D1124911D3F
:100DB000B29F700D811D1124911D0895AA1BBB1BAC
:100DC00051E107C0AA1FBB1FA617B70710F0A61B4B
:100DD000B70B881F991F5A95A9F780959095BC016C
:100DE000CD010895EE0FFF1F0590F491E02D0994B9
:0E0DF00081E090E0F8940C94FD06F894FFCF9B
:100DFE000B01344310100100000000660329032884
:100E0E0003000000008801F1002001CF0151012FE5
:100E1E000143010D0A00426567696E6E696E6720B7
:100E2E002E2E2E200046696E6973686564207365E8
:100E3E006E64696E6700476F74207061636B6574D2
:020E4E000000A2
:107E0000112484B714BE81FFF0D085E080938100F7
:107E100082E08093C00088E18093C10086E0809377
:107E2000C20080E18093C4008EE0C9D0259A86E02C
:107E300020E33CEF91E0309385002093840096BBD3
:107E4000B09BFECF1D9AA8958150A9F7CC24DD24C4
:107E500088248394B5E0AB2EA1E19A2EF3E0BF2EE7
:107E6000A2D0813461F49FD0082FAFD0023811F036
:107E7000013811F484E001C083E08DD089C08234E0
:107E800011F484E103C0853419F485E0A6D080C0E4
:107E9000853579F488D0E82EFF2485D0082F10E0AE
:107EA000102F00270E291F29000F111F8ED06801E7
:107EB0006FC0863521F484E090D080E0DECF843638
:107EC00009F040C070D06FD0082F6DD080E0C81688
:107ED00080E7D80618F4F601B7BEE895C0E0D1E017
:107EE00062D089930C17E1F7F0E0CF16F0E7DF06D8
:107EF00018F0F601B7BEE89568D007B600FCFDCFD4
:107F0000A601A0E0B1E02C9130E011968C91119780
:107F100090E0982F8827822B932B1296FA010C0160
:107F200087BEE89511244E5F5F4FF1E0A038BF0790
:107F300051F7F601A7BEE89507B600FCFDCF97BE46
:107F4000E89526C08437B1F42ED02DD0F82E2BD052
:107F50003CD0F601EF2C8F010F5F1F4F84911BD097
:107F6000EA94F801C1F70894C11CD11CFA94CF0C13
:107F7000D11C0EC0853739F428D08EE10CD085E9AC
:107F80000AD08FE07ACF813511F488E018D01DD067
:107F900080E101D065CF982F8091C00085FFFCCF94
:107FA0009093C60008958091C00087FFFCCF809118
:107FB000C00084FD01C0A8958091C6000895E0E648
:107FC000F0E098E1908380830895EDDF803219F02E
:107FD00088E0F5DFFFCF84E1DECF1F93182FE3DFCA
:107FE0001150E9F7F2DF1F91089580E0E8DFEE27F6
:047FF000FF270994CA
:027FFE00040479
:0400000300007E007B
:00000001FF