:100000000C945D000C9485000C9485000C94850084
:100010000C9485000C9485000C9485000C9485004C
:100020000C9485000C9485000C9485000C9485003C
:100030000C9485000C9485000C9485000C9485002C
:100040000C9423040C9485000C94F1030C94CB03C2
:100050000C9485000C9485000C9485000C9485000C
:100060000C9485000C94850000000008000201003B
:100070000003040700000000000000000000000072
:10008000250028002B0000000000240027002A0083
:10009000040404040404040402020202020203032E
:1000A0000303030301020408102040800102040836
:1000B00010200102040810206D0411241FBECFEF90
:1000C000D8E0DEBFCDBF11E0A0E0B1E0E6EDFEE09C
:1000D00002C005900D92A036B107D9F722E0A0E644
:1000E000B1E001C01D92AA39B207E1F710E0CDE5F9
:1000F000D0E004C02197FE010E945E07CC35D107F5
:10010000C9F70E94B8040C9469070C940000EEEA49
:10011000F1E0A089B18982E08C93A485B5851C9219
:10012000A685B7858FEC8C93108EA489B58986E05F
:100130008C93A289B3898C9180618C93A289B389B5
:100140008C9188608C93A289B3898C9180688C9300
:100150000288F389E02D80818F7D8083089590E06F
:10016000FC01EC55FF4F2491FC01E057FF4F8491B7
:10017000882399F090E0880F991FFC01EA57FF4F00
:10018000A591B491FC01E458FF4F859194918FB7EC
:10019000F894EC91E22BEC938FBF0895CF92DF920D
:1001A000FF920F931F93CF93DF931F92CDB7DEB7CC
:1001B000F82E8B016C018C2D8F198417A0F480917F
:1001C000980290919902D6016D916D01DC01ED913B
:1001D000FC910190F081E02D49830995F80181930C
:1001E0008F014981E8CF0F90DF91CF911F910F913F
:1001F000FF90DF90CF9008950F931F93CF93DF93DD
:10020000162F082FEC018C2F801B811768F480912A
:100210009802909199026991DC01ED91FC91019015
:10022000F081E02D0995EFCFDF91CF911F910F91D4
:100230000895CF92DF92EF92FF920F931F93CF9387
:10024000DF936C017A018B01C0E0D0E0CE15DF05B1
:1002500089F0D8016D918D01D601ED91FC9101904D
:10026000F081E02DC6010995892B11F47E0102C0B1
:100270002196ECCFC701DF91CF911F910F91FF9095
:10028000EF90DF90CF900895089580E090E008957A
:10029000FC01538D448D252F30E0842F90E0821B8C
:1002A000930B541710F0CF96089501970895FC0111
:1002B000918D828D981761F0828DDF01A80FB11D9D
:1002C0005D968C91928D9F5F9F73928F90E00895C1
:1002D0008FEF9FEF0895FC01918D828D981731F07B
:1002E000828DE80FF11D858D90E008958FEF9FEFCF
:1002F0000895FC01918D228D892F90E0805C9F4FA5
:10030000821B91098F73992708958EEA91E00E94CC
:10031000790121E0892B09F420E0822F0895FC0166
:10032000848DDF01A80FB11DA35ABF4F2C91848D7E
:1003300090E001968F739927848FA689B7892C93B3
:10034000A089B1898C9180648C93938D848D98134E
:1003500006C00288F389E02D80818F7D8083089517
:10036000EF92FF920F931F93CF93DF93EC0181E005
:10037000888F9B8D8C8D981305C0E889F9898081C1
:1003800085FD24C0F62E0B8D10E00F5F1F4F0F73FD
:100390001127E02E8C8DE8120CC00FB607FCFACFA7
:1003A000E889F989808185FFF5CFCE010E948F0110
:1003B000F1CF8B8DFE01E80FF11DE35AFF4FF08264
:1003C0000B8FEA89FB898081806207C0EE89FF89F3
:1003D0006083E889F98980818064808381E090E08E
:1003E000DF91CF911F910F91FF90EF900895CF93E0
:1003F000DF93EC01888D8823C9F0EA89FB8980812D
:1004000085FD05C0A889B9898C9186FD0FC00FB6FE
:1004100007FCF5CF808185FFF2CFA889B9898C913F
:1004200085FFEDCFCE010E948F01E7CFDF91CF9105
:10043000089580E090E0892B29F00E9485018111C8
:100440000C940000089590E0FC01E859FF4F3491AE
:10045000FC01EC55FF4F2491FC01E057FF4FE49164
:10046000EE2309F43BC0332339F1333091F038F4F3
:100470003130A9F0323001F584B58F7D12C03730AC
:1004800091F03830A1F03430B9F4809180008F7D44
:1004900003C0809180008F77809380000DC084B569
:1004A0008F7784BD09C08091B0008F7703C08091A1
:1004B000B0008F7D8093B000F0E0EE0FFF1FE45896
:1004C000FF4FA591B4918FB7F894EC91611103C0DF
:1004D00020952E2301C02E2B2C938FBF089561E011
:1004E000809195020C94230260E0809195020C9417
:1004F00023020F931F93CF93DF93C82FD62F0E9411
:10050000740203E912E0D80115968D919C9116971B
:10051000DC01ED91FC91CF716C2F60620190F08154
:10052000E02D0995F80185819681DC01ED91FC9122
:100530000190F081E02D6D2F0995DF91CF911F91F2
:100540000F910C946F020F931F93CF93C82F8B01C1
:100550000E9474028091980290919902DC01ED91C1
:10056000FC916C2F6F710190F081E02D099541E0B5
:10057000B801C8010E94CE00CF911F910F910C9439
:100580006F02CF93DF931F92CDB7DEB7BE016F5FCF
:100590007F4F87E00E94A30289810F90DF91CF9166
:1005A0000895CF93DF931F92CDB7DEB70E94C102AB
:1005B00086FD0AC0BE016F5F7F4F87E10E94A302E4
:1005C00089818095817001C081E00F90DF91CF918A
:1005D0000895CF93C82F0E94740280919802909141
:1005E0009902DC01ED91FC916C2F6F7160620190BA
:1005F000F081E02D099565E082E091E00E94FC0029
:10060000CF910C946F0260E0809194020C942302CD
:10061000CF93DF93C3E9D2E018820E9403036FE017
:1006200080E00E94790261E089810E94230260E3F8
:1006300087E0DF91CF910C94790280919302882317
:1006400031F00E94C102807321F00E94080380E013
:10065000089581E008953FB7F894809166019091E4
:100660006701A0916801B091690126B5A89B05C0FA
:100670002F3F19F00196A11DB11D3FBFBA2FA92F21
:10068000982F8827820F911DA11DB11DBC01CD019E
:1006900042E0660F771F881F991F4A95D1F708958A
:1006A0002FB7F894609162017091630180916401A9
:1006B000909165012FBF08950895CF93CFB7F89417
:1006C00080916001811124C0EAE9F0E08491EEEAB2
:1006D000F0E09491E82FF0E0EE0FFF1FEA57FF4F94
:1006E000A591B491EC91E92321F461E08AE00E94A4
:1006F00023028AE00E94AF008CB580618CBD8CB56E
:1007000080648CBD8DE00E94AF008BE00E94AF0042
:10071000809160018F5F80936001CFBF8CB5837F34
:100720008CBD8CB58C7F81608CBD8DB58E7F8DBD71
:10073000CF9108956EBD00000DB407FEFDCF8EB5BC
:1007400008950E9464076115710579F0FB0101901D
:100750000020E9F73197AF01461B570BDC01ED9103
:10076000FC910280F381E02D099480E090E00895EF
:10077000CF93DF93BC018EEA91E00E94A303EC01CA
:1007800062E371E08EEA91E00E94A3038C0F9D1F4B
:10079000DF91CF9108951F920F920FB60F921124FF
:1007A0002F933F934F935F936F937F938F939F9379
:1007B000AF93BF93EF93FF938EEA91E00E948F0176
:1007C000FF91EF91BF91AF919F918F917F916F9129
:1007D0005F914F913F912F910F900FBE0F901F90FF
:1007E00018951F920F920FB60F9211242F938F938B
:1007F0009F93EF93FF93E091BE01F091BF01808141
:10080000E091C401F091C50182FD12C090818091F8
:10081000C7018F5F8F732091C801821751F0E0915B
:10082000C701F0E0E255FE4F958F8093C70101C0EC
:100830008081FF91EF919F918F912F910F900FBE2B
:100840000F901F9018951F920F920FB60F921124C0
:100850002F933F938F939F93AF93BF9380916201A8
:1008600090916301A0916401B091650130916101A3
:1008700023E0230F2D3720F40196A11DB11D05C0E3
:1008800026E8230F0296A11DB11D209361018093DC
:10089000620190936301A0936401B093650180911C
:1008A000660190916701A0916801B091690101967C
:1008B000A11DB11D8093660190936701A09368010B
:1008C000B0936901BF91AF919F918F913F912F910B
:1008D0000F900FBE0F901F901895EEEAF1E0138273
:1008E000128288EE93E0A0E0B0E084839583A68333
:1008F000B78385E191E09183808385EC90E09587D3
:10090000848784EC90E09787868780EC90E0918BD9
:10091000808B81EC90E0938B828B82EC90E0958BC6
:10092000848B86EC90E0978B868B118E128E138EC3
:10093000148EEBE4F2E0168217821086118612867E
:1009400013861486158616861786108A118A128ACF
:10095000138A148A158AE3E9F2E088E0818387E04C
:10096000828381E0838380E18483168215820895E7
:10097000CF93DF93CDB7DEB7A1970FB6F894DEBF64
:100980000FBECDBF789484B5826084BD84B581608C
:1009900084BD85B5826085BD85B5816085BD80914A
:1009A0006E00816080936E001092810080918100C2
:1009B00082608093810080918100816080938100BA
:1009C000809180008160809380008091B10084607C
:1009D0008093B1008091B00081608093B0008091DD
:1009E0007A00846080937A0080917A00826080939C
:1009F0007A0080917A00816080937A0080917A00F9
:100A0000806880937A001092C10010928F02109239
:100A10009002109291021092920210924D02109246
:100A20004E0210924F02109250020E9450036B012E
:100A30007C014B015C0128EB820E2BE0921EA11C75
:100A4000B11C0E9450036C157D058E059F0528F092
:100A500086169706A806B906A0F78EEA91E090934D
:100A60008E0280938D020E9487000E945003609343
:100A70004D0270934E0280934F029093500263E2B6
:100A800071E080918D0290918E020E94A3030E94DA
:100A900050036B017C014B015C018AE0880E911CC4
:100AA000A11CB11C0E9450036C157D058E059F058D
:100AB00028F086169706A806B906A0F781E080936D
:100AC00061020E94870088E08093940287E080930F
:100AD000950280E2809397021092960280E091E066
:100AE000909399028093980288E00E94AF008091D1
:100AF00095020E94AF000E9403030E946F02809142
:100B0000980290919902DC01ED91FC910280F381B1
:100B1000E02D099585E391E00E94B803609196026B
:100B200085E00E9479026091970281E10E9479023A
:100B30006091970282E10E9479020E9408030E945C
:100B400074028091980290919902DC01ED91FC91E0
:100B50000190F081E02D62EE09950E946F020E94E3
:100B600003036AE184E00E94790261E080919402CB
:100B70000E94230286E080938E0183E480938F019C
:100B800081E3809390018AE38093910180E38093D5
:100B9000920195E3909393018093940131E4332E75
:100BA0004AE0442E512C612C712C222423948AE09B
:100BB0000E94E90280E10E94E90230927C0080916B
:100BC0007A00806480937A0080917A0086FDFCCF61
:100BD000209178008091790030E0382BA4E6B0E0D5
:100BE0000E943B07DC01CB012AE0B595A7959795BC
:100BF00087952A95D1F77C019C01AD0119A28E0140
:100C00000F5D1F4FCA01B901A30192010E9419078C
:100C1000605DF80162938F01211531054105510591
:100C200089F7BF018EEA91E00E94A30362E371E0BD
:100C30008EEA91E00E94A303C70164E670E00E947F
:100C40004A07605D60939201C7016AE070E00E940C
:100C50004A07605D60939301805D809394010E94D8
:100C6000C10280919302882331F00E94C1028073F7
:100C7000C1F3109293020E940303209293026EE04C
:100C800080E00E9479020E94740280919802909103
:100C90009902DC01ED91FC910190F081E02D61EE73
:100CA00009950E946F020E947402809198029091AF
:100CB0009902DC01ED91FC910190F081E02D60EA58
:100CC0000995609197028EE891E00E94FC000E94D5
:100CD0006F0261E0809194020E9423020E941D0332
:100CE0008111FCCF84E491E00E94B8030E9450037C
:100CF00060938A0170938B0180938C0190938D0196
:100D00000E94D102811115C00E94500300918A01F6
:100D100010918B0120918C0130918D01DC01CB0170
:100D2000801B910BA20BB30B893E9340A105B1052B
:100D300038F30E941D03811104C00E94D102811169
:100D400031C00E942B034B015C0188EE93E0A0E0D0
:100D5000B0E06C017D010E942B03DC01CB018819FE
:100D60009909AA09BB09883E9340A105B10588F0FD
:100D7000F1E0CF1AD108E108F10828EE820E23E055
:100D8000921EA11CB11CC114D104E104F10419F795
:100D900006C0D701C601CD28CE28CF28D1F60E94A3
:100DA000190205CF85E591E00E94B8030E94740204
:100DB0008091980290919902DC01ED91FC91019053
:100DC000F081E02D61E60995409197026AE671E0B5
:100DD000CB010E94CE000E946F0260E487E00E9477
:100DE000790280916C01813351F480916E018F34CE
:100DF00011F460E001C061E082E00E94230200E0A3
:100E000010E080916A0190E0081719070CF099CF63
:100E10000F5F1F4FF801E659FE4F6081E091AE0170
:100E2000F091AF010190F081E02D8EEA91E00995FB
:100E3000E8CFA1E21A2EAA1BBB1BFD010DC0AA1F01
:100E4000BB1FEE1FFF1FA217B307E407F50720F033
:100E5000A21BB30BE40BF50B661F771F881F991FAE
:100E60001A9469F760957095809590959B01AC01F7
:100E7000BD01CF010895A29FB001B39FC001A39F00
:100E8000700D811D1124911DB29F700D811D1124C3
:100E9000911D0895AA1BBB1B51E107C0AA1FBB1FD0
:100EA000A617B70710F0A61BB70B881F991F5A95F6
:100EB000A9F780959095BC01CD010895EE0FFF1F15
:100EC0000590F491E02D099481E090E0F8940C9461
:060ED0006907F894FFCF52
:100ED6000B013443101001000000009A035D035C0F
:100EE6000300000000B00119014801F7017901571C
:100EF600016B01564D4450565F317C315F564D446F
:100F060050560D0A00426567696E6E696E67202E3F
:100F16002E2E200046696E69736865642073656EBF
:100F260064696E6700476F74207061636B65740057
:107E0000112484B714BE81FFF0D085E080938100F7
:107E100082E08093C00088E18093C10086E0809377
:107E2000C20080E18093C4008EE0C9D0259A86E02C
:107E300020E33CEF91E0309385002093840096BBD3
:107E4000B09BFECF1D9AA8958150A9F7CC24DD24C4
:107E500088248394B5E0AB2EA1E19A2EF3E0BF2EE7
:107E6000A2D0813461F49FD0082FAFD0023811F036
:107E7000013811F484E001C083E08DD089C08234E0
:107E800011F484E103C0853419F485E0A6D080C0E4
:107E9000853579F488D0E82EFF2485D0082F10E0AE
:107EA000102F00270E291F29000F111F8ED06801E7
:107EB0006FC0863521F484E090D080E0DECF843638
:107EC00009F040C070D06FD0082F6DD080E0C81688
:107ED00080E7D80618F4F601B7BEE895C0E0D1E017
:107EE00062D089930C17E1F7F0E0CF16F0E7DF06D8
:107EF00018F0F601B7BEE89568D007B600FCFDCFD4
:107F0000A601A0E0B1E02C9130E011968C91119780
:107F100090E0982F8827822B932B1296FA010C0160
:107F200087BEE89511244E5F5F4FF1E0A038BF0790
:107F300051F7F601A7BEE89507B600FCFDCF97BE46
:107F4000E89526C08437B1F42ED02DD0F82E2BD052
:107F50003CD0F601EF2C8F010F5F1F4F84911BD097
:107F6000EA94F801C1F70894C11CD11CFA94CF0C13
:107F7000D11C0EC0853739F428D08EE10CD085E9AC
:107F80000AD08FE07ACF813511F488E018D01DD067
:107F900080E101D065CF982F8091C00085FFFCCF94
:107FA0009093C60008958091C00087FFFCCF809118
:107FB000C00084FD01C0A8958091C6000895E0E648
:107FC000F0E098E1908380830895EDDF803219F02E
:107FD00088E0F5DFFFCF84E1DECF1F93182FE3DFCA
:107FE0001150E9F7F2DF1F91089580E0E8DFEE27F6
:047FF000FF270994CA
:027FFE00040479
:0400000300007E007B
:00000001FF