:1000000024C1000052C1000050C100004EC10000D8
:100010004CC100004AC1000048C1000046C10000B8
:1000200044C1000042C1000040C100003EC10000C8
:100030003CC100003AC1000038C1000036C10000D8
:1000400034C1000032C1000030C100002EC10000E8
:100050002CC100002AC1000028C10000F6C3000026
:1000600024C10000C7C200009CC200001EC10000E5
:100070001CC100001AC1000018C1000016C1000018
:1000800014C1000012C1000010C100000EC1000028
:100090000CC100000AC1000008C1000006C1000038
:1000A00004C1000002C1000000C10000FEC0000049
:1000B000FCC00000FAC00000F8C00000F6C000005C
:1000C000F4C00000F2C00000F0C00000EEC000006C
:1000D000ECC00000EAC00000E8C00000E6C000007C
:1000E000E4C000005F036203510355035903990301
:1000F00066036A037003740378037E038203860336
:1001000099038C0390039403005EBCE2613FDD839E
:10011000C29C7E20A3FD1F41009D23BE46DB65F8E7
:100120008C11AF32CA57E974000021002400270067
:100130002A002D00300033000101000004010701F6
:100140000A0100002200250028002B002E003100AB
:10015000340002010000050108010B0100000A0B38
:1001600002090C0D0E080703040100000000000046
:10017000000000000000000000000000000000007F
:10018000000000000000000012111000000000003C
:10019000000000000000000000000000000000005F
:1001A0000000000020002300260029002C002F0062
:1001B00032000001000003010601090105050505E3
:1001C000070508080808020202020A0A08080404CF
:1001D00004040101010101010101030303030303FD
:1001E0000303040707070C0C0C0C0C0C0C0C02028C
:1001F000020206060606060606060B0B0B0B0B0B89
:100200000B0B010210202008081020401020408015
:1002100002010201080402010102040810204080CA
:100220008040201008040201800402018040201058
:1002300008040201080402010102040810204080A1
:1002400001020408102040808A0B11241FBECFEF4A
:10025000D1E2DEBFCDBF00E00CBF12E0A0E0B2E013
:10026000E4E8FBE100E00BBF02C007900D92A83567
:10027000B107D9F723E0A8E5B2E001C01D92AC3682
:10028000B207E1F711E0C5E2D1E000E006C0219736
:100290000109802FFE010E94B40DC432D10780E015
:1002A0000807A9F7BED60C94C00DAACE089580E029
:1002B00090E00895FC01538D448D252F30E0842F6C
:1002C00090E0821B930B541710F0CF96089501977E
:1002D0000895FC01918D828D981761F0828DDF0168
:1002E000A80FB11D5D968C91928D9F5F9F73928F29
:1002F00090E008958FEF9FEF0895FC01918D828D1E
:10030000981731F0828DE80FF11D858D90E00895EA
:100310008FEF9FEF0895FC01918D228D892F90E042
:10032000805C9F4F821B91098F739927089586EAFD
:1003300092E0F1DF21E0892B09F420E0822F08957B
:10034000FC01848DDF01A80FB11DA35ABF4F2C9172
:10035000848D90E001968F739927848FA689B78941
:100360002C93A089B1898C9180648C93938D848D1A
:10037000981306C00288F389E02D80818F7D8083E9
:100380000895EF92FF920F931F93CF93DF93EC01A9
:1003900081E0888F9B8D8C8D981305C0E889F98941
:1003A000808185FD23C0F62E0B8D10E00F5F1F4F5F
:1003B0000F731127E02E8C8DE8120BC00FB607FCCF
:1003C000FACFE889F989808185FFF5CFCE01B8DFC2
:1003D000F2CF8B8DFE01E80FF11DE35AFF4FF08243
:1003E0000B8FEA89FB898081806207C0EE89FF89D3
:1003F0006083E889F98980818064808381E090E06E
:10040000DF91CF911F910F91FF90EF900895CF93BF
:10041000DF93EC01888D8823C1F0EA89FB89808114
:1004200085FD05C0A889B9898C9186FD0EC00FB6DF
:1004300007FCF5CF808185FFF2CFA889B9898C911F
:1004400085FFEDCFCE017CDFE8CFDF91CF9108951E
:1004500080E090E0892B19F06ADF811125C080E0EF
:1004600090E0892B41F080E090E0892B21F00E9400
:10047000000081111CC080E090E0892B41F080E0F9
:1004800090E0892B21F00E940000811113C080E0D0
:1004900090E0892BA1F080E090E0892B81F00E9410
:1004A000000081110AC008950E940000D8CF0E9468
:1004B0000000E1CF0E940000EACF0C9400000895F4
:1004C0003FB7F89480915E0290915F02A091600224
:1004D000B091610226B5A89B05C02F3F19F0019687
:1004E000A11DB11D3FBFBA2FA92F982F8827820FBA
:1004F000911DA11DB11DBC01CD0142E0660F771F0A
:10050000881F991F4A95D1F708958F929F92AF92B5
:10051000BF92CF92DF92EF92FF926B017C01D0DF0E
:100520004B015C01C114D104E104F104E9F0C8DF1E
:10053000DC01CB0188199909AA09BB09883E9340BF
:10054000A105B10578F321E0C21AD108E108F1084C
:1005500088EE880E83E0981EA11CB11CC114D10442
:10056000E104F10421F7DECFFF90EF90DF90CF9010
:10057000BF90AF909F908F9008952FB7F89460919F
:100580005A0270915B0280915C0290915D022FBFD4
:10059000089508956EBD00000DB407FEFDCF8EB521
:1005A00008951F920F920FB60F9211240BB60F925F
:1005B0002F933F934F935F936F937F938F939F936B
:1005C000AF93BF93EF93FF9386EA92E0B9DEFF917A
:1005D000EF91BF91AF919F918F917F916F915F91BB
:1005E0004F913F912F910F900BBE0F900FBE0F9028
:1005F0001F9018951F920F920FB60F9211240BB6F1
:100600000F922F938F939F93EF93FF93E091B602F6
:10061000F091B7028081E091BC02F091BD0282FDB1
:1006200012C090818091BF028F5F8F732091C002B2
:10063000821751F0E091BF02F0E0EA55FD4F958F2F
:100640008093BF0201C08081FF91EF919F918F91B4
:100650002F910F900BBE0F900FBE0F901F9018950B
:10066000362F90E0FC01E45AFE4F4491FC01EE5F0E
:10067000FD4F2491FC01E454FE4F9491992309F419
:100680006BC0442309F455C050E0FA013197E231C0
:10069000F10508F04EC08827EE58FF4F8F4F0C949D
:1006A000B40D809180008F7707C0809180008F7D8E
:1006B00003C080918000877F809380003AC084B51A
:1006C0008F7702C084B58F7D84BD33C08091B00028
:1006D0008F7703C08091B0008F7D8093B00029C0D8
:1006E000809190008F7707C0809190008F7D03C02C
:1006F00080919000877F809390001BC08091A00024
:100700008F7707C08091A0008F7D03C08091A000EB
:10071000877F8093A0000DC0809120018F7707C054
:10072000809120018F7D03C080912001877F80937D
:100730002001E92FF0E0EE0FFF1FEE5BFE4FA591C9
:10074000B4918FB7F894EC91311103C020952E230A
:1007500001C02E2B2C938FBF0895CF93DF9390E091
:10076000FC01EE5FFD4F2491FC01E454FE4F8491A7
:10077000882361F190E0880F991FFC01E85DFE4F2E
:10078000C591D491FC01EE5BFE4FA591B49161112E
:1007900009C09FB7F8948881209582238883EC91C3
:1007A0002E230BC0623061F49FB7F8943881822FFA
:1007B000809583238883EC912E2B2C939FBF06C0BA
:1007C0008FB7F894E8812E2B28838FBFDF91CF91CC
:1007D0000895CF93CFB7F89480915802811123C028
:1007E000E1EFF1E08491E7E3F2E09491E82FF0E0AB
:1007F000EE0FFF1FE85DFE4FA591B491EC91E92348
:1008000019F461E085E32CDF61E085E3A6DF8CB5B8
:1008100080618CBD8CB580648CBD61E084E39DDF1C
:1008200061E083E39ADF809158028F5F80935802E2
:10083000CFBF8CB5837F8CBD8CB58C7F81608CBD28
:100840008DB58E7F8DBDCF9108951F920F920FB6FB
:100850000F9211242F933F938F939F93AF93BF9346
:1008600080915A0290915B02A0915C02B0915D026E
:100870003091590223E0230F2D3720F40196A11D5A
:10088000B11D05C026E8230F0296A11DB11D2093BE
:10089000590280935A0290935B02A0935C02B0933A
:1008A0005D0280915E0290915F02A0916002B09122
:1008B00061020196A11DB11D80935E0290935F02BB
:1008C000A0936002B0936102BF91AF919F918F910D
:1008D0003F912F910F900FBE0F901F901895DC0144
:1008E00080E0615090F09D919827E92FEF70F0E043
:1008F000E85FFE4F249192959F70E92FF0E0E85E4B
:10090000FE4FE4918E2F8227ECCF0895FC01908159
:100910000180F281E02DF8948181892B81832281ED
:10092000892F809528232283A7E0B0E01197F1F763
:10093000218182238183A3E2B0E01197F1F78081C6
:100940007894EFECF0E03197F1F7982381E009F427
:1009500080E00895FC0190810180F281E02D892FD3
:10096000809560FF12C0F894228182238283818166
:10097000892B8183A3E2B0E01197F1F78281982B54
:100980009283789487ED90E011C0F89422818223BD
:1009900082838181892B8183AFEFB0E01197F1F7DA
:1009A0008281982B928378948FE090E00197F1F701
:1009B0000895CF92DF92EF92FF920F931F93CF9300
:1009C000DF931F92CDB7DEB76C01E62E08E010E092
:1009D000FF24F39461E08F2D8E2109F460E0C601BD
:1009E0004983B8DFFF0C0150110949810115110538
:1009F00089F7411115C0F894D6011196ED91FC913B
:100A0000129791818C918095892381831196ED9124
:100A1000FC91129792818C9180958923828378949E
:100A20000F90DF91CF911F910F91FF90EF90DF908A
:100A3000CF900895CF92DF92EF92FF920F931F9382
:100A4000CF93DF931F92CDB7DEB78C01F62E40E037
:100A500065E57983AEDFCF2C7981D72E760188E0EA
:100A6000E80EF11CF60161916F0140E0C801A1DFC1
:100A7000CE14DF04B9F70F90DF91CF911F910F9142
:100A8000FF90EF90DF90CF900895FC01908101805E
:100A9000F281E02DF8948181292F20958223818392
:100AA00078948DE743E050E0815021F1DA0111970D
:100AB000F1F730813923C1F3F89482818223828354
:100AC0008181892B81837894ABE7B7E01197F1F7A7
:100AD000F894818128232183A3E1B1E01197F1F7F4
:100AE0008081982381E009F080E07894E3E6F6E0E5
:100AF0003197F1F70895CF92DF92EF92FF920F9323
:100B00001F93CF93DF936C017A018B01C0E0D0E09B
:100B1000CE15DF0589F0D8016D918D01D601ED91DB
:100B2000FC910190F081E02DC6011995892B11F4FB
:100B30007E0102C02196ECCFC701DF91CF911F91BA
:100B40000F91FF90EF90DF90CF900895009761F0A4
:100B5000FC0101900020E9F73197AF01481B590BC8
:100B6000BC0186EA92E0C7CF80E090E008950E9441
:100B7000BC0D61E08091450373CD60E08091450339
:100B80006FCD0F931F93CF93DF93C82FD62FF5DF31
:100B900003E413E0D80115968D919C911697DC0122
:100BA000ED91FC91CF716C2F60620190F081E02D8E
:100BB0001995F80185819681DC01ED91FC910190F8
:100BC000F081E02D6D2F1995DF91CF911F910F913D
:100BD000D0CF60E08091440343CDCF93DF93C3E453
:100BE000D3E01882F6DF6FE080E0CBDF61E089813F
:100BF00037DD60E387E0DF91CF91C3CFCF93DF9301
:100C0000A5DFEC0184E592E0A1DF8C0F9D1FDF9151
:100C1000CF910895AF92BF92CF92DF92EF92FF9261
:100C20000F931F93CF93DF931F92CDB7DEB75C0175
:100C3000D62EE72EFC018585811104C0C50125DF74
:100C4000811106C0F50113861586148680E061C007
:100C500040E060EFC501ADDE01E0F12CC12C11E0F8
:100C6000C50154DE682FC501698350DE698161309A
:100C700019F48130B9F432C04F2D50E068131BC015
:100C8000F5018385181730F4E40FF51F8381802365
:100C900049F402C0181731F060E0193058F4F5013A
:100CA000148708C0F501EF0DF11D8381802B83832C
:100CB00061E009C0C12EF501E40FF51F9381802F7B
:100CC000809589238383C50145DE1F5F000F11F4E2
:100CD000F39401E0F7E0FF1508F0C2CF113408F4F7
:100CE000B1CFF501C386C11002C081E08587F5014F
:100CF0008381882309F4A6CFD5011396ED2DFE2D0F
:100D00009501255F3F4F8D918193A217B307D9F7C6
:100D100081E00F90DF91CF911F910F91FF90EF90A5
:100D2000DF90CF90BF90AF900895AF92BF92CF92D7
:100D3000DF92EF92FF920F931F93CF93DF938B017C
:100D4000BC01809150039091510374DE40E06EEB42
:100D500080915003909151032CDEE801680189E0F5
:100D6000C80ED11CA0905003B090510388E0E82E2B
:100D7000F12C01E010E0C501C9DD8111102B000F3D
:100D800081E0E81AF108B9F71993CC15DD0551F7A0
:100D9000809150039091510378DE91E0813009F009
:100DA00090E0892FDF91CF911F910F91FF90EF90ED
:100DB000DF90CF90BF90AF9008950F931F93CF9384
:100DC000DF93CDB7DEB729970FB6F894DEBF0FBE1D
:100DD000CDBFFC012081203149F18C01809150036D
:100DE0009091510352DE8823F9F0BE016F5F7F4F6F
:100DF000C8019BDF8823C1F068E0CE0101966FDD5A
:100E00009985891311C08D818F3361F020F48F3162
:100E100059F489E00CC08F3519F08F3739F004C0D0
:100E20008BE005C08AE003C080E001C08CE0299619
:100E30000FB6F894DEBF0FBECDBFDF91CF911F91EB
:100E40000F910895CF92DF92FF920F931F93CF934C
:100E5000DF931F92CDB7DEB7F82E8B016C018C2D7E
:100E60008F198417A0F48091480390914903D6010B
:100E70006D916D01DC01ED91FC910190F081E02D0F
:100E800049831995F80181938F014981E8CF0F902B
:100E9000DF91CF911F910F91FF90DF90CF90089538
:100EA0000F931F93CF93C82F8B0167DE8091480368
:100EB00090914903DC01ED91FC916C2F6F710190D1
:100EC000F081E02D199541E0B801C801BBDFCF9159
:100ED0001F910F914ECECF93DF931F92CDB7DEB708
:100EE000BE016F5F7F4F87E0DBDF89810F90DF916D
:100EF000CF910895CF93DF931F92CDB7DEB7EBDF8D
:100F000086FD09C0BE016F5F7F4F87E1C9DF898120
:100F10008095817001C081E00F90DF91CF9108959D
:100F200080914303882321F0D6DF807319F055DECA
:100F300080E0089581E008950F931F93CF93DF938E
:100F4000162F082FEC018C2F801B811768F48091DD
:100F50004803909149036991DC01ED91FC91019066
:100F6000F081E02D1995EFCFDF91CF911F910F9177
:100F70000895CF92DF92EF92FF920F931F93CF933A
:100F8000DF93CDB7DEB7A1970FB6F894DEBF0FBEE3
:100F9000CDBF9C0140E050E019A28E010F5D1F4FB4
:100FA0008AE0C82ED12CE12CF12CCA01B901A7018D
:100FB000960165D4605DF80162938F0121153105BA
:100FC0004105510591F7CF01C1DD8C0184E592E027
:100FD000BDDD800F911FA1960FB6F894DEBF0FBE46
:100FE000CDBFDF91CF911F910F91FF90EF90DF90D8
:100FF000CF900895CF93C82FC0DD80914803909182
:101000004903DC01ED91FC916C2F6F7160620190DE
:10101000F081E02D199565E082E092E08DDFCF91BF
:10102000A8CDCF93DF93CDB7DEB765970FB6F89411
:10103000DEBF0FBECDBF789484B5826084BD84B519
:10104000816084BD85B5826085BD85B5816085BDC3
:1010500080916E00816080936E001092810080917B
:101060008100826080938100809181008160809303
:101070008100809180008160809380008091B10028
:1010800084608093B1008091B00081608093B00053
:1010900080919100826080939100809191008160A5
:1010A0008093910080919000816080939000809166
:1010B000A10082608093A1008091A1008160809353
:1010C000A1008091A00081608093A0008091210107
:1010D00082608093210180912101816080932101B0
:1010E0008091200181608093200180917A0084604A
:1010F00080937A0080917A00826080937A00809158
:101100007A00816080937A0080917A008068809371
:101110007A001092C100E091B602F091B70282E02D
:101120008083E091B202F091B3021082E091B402A8
:10113000F091B5028FEC80831092BE02E091BA026A
:10114000F091BB0286E08083E091B802F091B90291
:10115000808180618083E091B802F091B902808142
:1011600088608083E091B802F091B9028081806844
:101170008083E091B802F091B90280818F7D8083F5
:1011800061E082E0EADA61E082E06ADAE09150034D
:10119000F0915103138615861486DF011B96339652
:1011A0001E92AE17BF07E1F710924E0310924F0345
:1011B00011E0BE016F5F7F4F80915003909151030A
:1011C00029DD882309F456C067E0CE01019687DB4C
:1011D00098858913EECF80914A03811122C08091B6
:1011E00050039091510351DCBE016F5F7F4F80919E
:1011F0005003909151031EDC40E064EB809150035A
:1012000090915103D6DB80915003909151037EDB86
:10121000082F809150039091510337DC002309F48B
:10122000E1C100914B03CE010196C7DD801718F490
:1012300080914B0303C0CE010196BFDD80934B0329
:1012400080914E038F5F80934E038981883261F0D5
:1012500030F4803149F0823209F0ABCF05C08B33D6
:1012600019F0823409F0A5CF80914F038F5F8093EE
:101270004F039FCF88E08093440387E0809345032A
:1012800080E2809347031092460380E092E09093BF
:1012900049038093480361E088E05FDA61E0809170
:1012A00045035BDA96DC65DC809148039091490345
:1012B000DC01ED91FC910280F381E02D199589E22A
:1012C00092E09CDC6091460385E05BDC6091470323
:1012D00081E157DC6091470382E153DC7EDC4DDC29
:1012E0008091480390914903DC01ED91FC910190BC
:1012F000F081E02D62EE19953CDC6BDC6AE184E064
:1013000040DC61E080914403ABD98BE0809386029E
:1013100083E48093870282E3809388028AE3809348
:10132000890288E480938A0280E380938B0295E3AC
:1013300090938C0280938D0224E520938E028093FB
:101340008F029093900280939102B1E42B2E882417
:101350008A9413E0912EA12CB12C04E6C02ED12C3E
:101360008AE0E82EF12C332433948091500390913D
:1013700051038BDB40E06CEC809150039091510362
:1013800018DB40914A0364E480915003909151032B
:1013900010DB80914C03882309F43FC0E0914B039C
:1013A000E950E33040F4F0E0EE0FFF1FEF5EFD4F39
:1013B0000081118102C00EEE12E080914D0388235E
:1013C00039F180914A03811123C0D7D82B013C0108
:1013D0009801110F440B550B2A8B3B8B4C8B5D8B6B
:1013E000809150039091510391DA8130B1F0C5D8CA
:1013F000DC01CB012A893B894C895D89821B930BD7
:10140000A40BB50B84159505A605B70548F305C0D3
:10141000B801110F880B990B78D8E0915003F09127
:101420005103138615861486DF011B96CF010396A0
:101430001E92A817B907E1F7BE01665F7F4FCF0183
:10144000E9DB882341F067E0CE010A9648DA998902
:10145000891709F40BC160E070E08EEF92EC40D286
:101460008B01CB0186DD8AE0C5DD80E1C3DD8091A3
:101470007B00877F80937B0020927C0080917A00A4
:10148000806480937A0080917A0086FDFCCFA091E1
:10149000780080917900B0E0B82B2CE93FEF4FEF56
:1014A0005FEFE3D1A5019401C4D1DA01C9018C59E0
:1014B0009F4FAF4FBF4F3C015CDDC301B6012DD341
:1014C000605D60938B02C301B70127D3282FCB0146
:1014D000B70123D3805D80938C02205D20938D0221
:1014E000C801B6011AD3605D60938F02C801B701CD
:1014F00014D3282FCB01B70110D3805D80939002C5
:10150000205D20939102E7DC682F87E03ADB809131
:101510004303882329F0DFDC8073C9F3109243036F
:1015200058DB309243036EE080E02BDB26DB8091BA
:10153000480390914903DC01ED91FC910190F08109
:10154000E02D61EE199515DB18DB80914803909131
:101550004903DC01ED91FC910190F081E02D60EAFE
:1015600019956091470386E892E0E6DC02DB61E0D2
:101570008091440375D8D4DC8111FDCF88E392E0DB
:101580003DDB0E94BD0260938202709383028093D0
:10159000840290938502AEDC811115C00E94BD02C9
:1015A0000091820210918302209184023091850281
:1015B000DC01CB01801B910BA20BB30B893E934046
:1015C000A105B10540F3ACDC811103C093DC8111AE
:1015D0000CC068EE73E080E090E00E9485020E94FB
:1015E0002802C3CE10934A031CCE89E492E006DBA6
:1015F000C4DA8091480390914903DC01ED91FC919C
:101600000190F081E02D61E619954091470362E673
:1016100072E0CB0117DCADDA60E487E0B2DA8091EA
:101620006402823349F4809166028F3411F460E0E1
:1016300001C061E082E014D800E010E08091620215
:1016400090E0081719070CF0C4CF0F5F1F4FF80187
:10165000EE59FD4F6081E091A602F091A702019042
:10166000F081E02D86EA92E01995E8CF8091500351
:10167000909151030ADA8823D9F1BE016F5F7F4F41
:10168000CE010A9652DB882399F168E0CE010196DB
:1016900026D9998589132CC0698138E0639FB001F0
:1016A00011248A81282F30E0322F2227330F330F65
:1016B000330F262B372B8A858031C1F4688570E083
:1016C0008F81AB01481B5109CA019695982F882735
:1016D0009795879536D260517109207F53E0220F8C
:1016E000331F5A95E1F7620F731F04C0B90102C09E
:1016F00060E874EE613854EE75070CF4ACCE072E3A
:10170000000C880B990B1AD120E030E040E05CE33C
:1017100079D1A5CE1092A9021092A80288EE93E08A
:10172000A0E0B0E08093AA029093AB02A093AC0239
:10173000B093AD028BE192E09093A7028093A60252
:1017400085EC90E09093B3028093B20284EC90E039
:101750009093B5028093B40280EC90E09093B7022E
:101760008093B60281EC90E09093B9028093B80226
:1017700082EC90E09093BB028093BA0286EC90E0FA
:101780009093BD028093BC021092BF021092C002DF
:101790001092C1021092C20288E08093440387E055
:1017A0008093450381E08093460380E18093470363
:1017B000109249031092480360E086E30E94AD0353
:1017C000E8E3F2E0E491E0935E03E2EFF1E0E4911C
:1017D000F0E0EE0FFF1FEE55FE4F85919491909330
:1017E000600380935F031092690310926B03109261
:1017F0006A03E9E6F3E0129283E0E136F807D9F7ED
:101800008EE593E0909351038093500310924E0322
:1018100010924F0310924A0389E080934B0381E0BA
:1018200080934C0380934D0310925D0310925C03F0
:101830000895052E97FB16F400940FD057FD05D0A0
:101840001ED007FC02D046F408C050954095309554
:1018500021953F4F4F4F5F4F08959095809570951C
:1018600061957F4F8F4F9F4F08952BD0A59F900D6F
:10187000B49F900DA49F800D911D11240895A1E2A5
:101880001A2EAA1BBB1BFD010DC0AA1FBB1FEE1FFA
:10189000FF1FA217B307E407F50720F0A21BB30B45
:1018A000E40BF50B661F771F881F991F1A9469F7C1
:1018B00060957095809590959B01AC01BD01CF011D
:1018C0000895A29FB001B39FC001A39F700D811D19
:1018D0001124911DB29F700D811D1124911D089539
:1018E00070D088F09F5790F0B92F9927B751A0F08A
:1018F000D1F0660F771F881F991F1AF0BA95C9F7A4
:1019000012C0B13081F077D0B1E0089574C0672F74
:10191000782F8827B85F39F0B93FCCF38695779553
:101920006795B395D9F73EF490958095709561953C
:101930007F4F8F4F9F4F0895E89409C097FB3EF467
:1019400090958095709561957F4F8F4F9F4F99230C
:10195000A9F0F92F96E9BB279395F695879577958A
:101960006795B795F111F8CFFAF4BB0F11F460FF4A
:101970001BC06F5F7F4F8F4F9F4F16C0882311F0A2
:1019800096E911C0772321F09EE8872F762F05C0B6
:10199000662371F096E8862F70E060E02AF09A9551
:1019A000660F771F881FDAF7880F9695879597F946
:1019B000089557FD9058440F551F59F05F3F71F03F
:1019C0004795880F97FB991F61F09F3F79F08795A6
:1019D0000895121613061406551FF2CF4695F1DF2F
:1019E00008C0161617061806991FF1CF86957105BF
:1019F000610508940895E894BB2766277727CB01F3
:101A000097F908950BD078C069D028F06ED018F0FF
:101A1000952309F05AC05FC01124EECFCADFA0F3AE
:101A2000959FD1F3950F50E0551F629FF001729F73
:101A3000BB27F00DB11D639FAA27F00DB11DAA1F92
:101A4000649F6627B00DA11D661F829F2227B00DDF
:101A5000A11D621F739FB00DA11D621F839FA00D6A
:101A6000611D221F749F3327A00D611D231F849FBA
:101A7000600D211D822F762F6A2F11249F57504011
:101A80008AF0E1F088234AF0EE0FFF1FBB1F661FAC
:101A9000771F881F91505040A9F79E3F510570F065
:101AA00014C0AACF5F3FECF3983EDCF386957795A0
:101AB0006795B795F795E7959F5FC1F7FE2B880F60
:101AC000911D9695879597F9089597F99F6780E8F6
:101AD00070E060E008959FEF80EC089500240A9480
:101AE0001616170618060906089500240A941216F9
:101AF0001306140605060895092E0394000C11F42C
:101B0000882352F0BB0F40F4BF2B11F460FF04C0D8
:101B10006F5F7F4F8F4F9F4F0895AA1BBB1B51E1F3
:101B200007C0AA1FBB1FA617B70710F0A61BB70B4D
:101B3000881F991F5A95A9F780959095BC01CD01F2
:101B4000089597FB072E16F4009406D077FD08D071
:101B5000E4DF07FC05D03EF4909581959F4F0895F2
:101B6000709561957F4F0895EE0FFF1F881F8BBF03
:101B70000790F691E02D199481E090E0F89400C070
:041B8000F894FFCF07
:101B84000B02344310100100000000CA02E903C92B
:101B9400025E00BC00770100000000C1017B055A11
:101BA4000107028B0169017D01426567696E6E69F7
:101BB4006E67202E2E2E200046696E697368656458
:101BC4002073656E64696E6700476F74207061638B
:081BD4006B6574000D0A0000AE
:020000023000CC
:10E000000D9489F10D94B2F10D94B2F10D94B2F129
:10E010000D94B2F10D94B2F10D94B2F10D94B2F1F0
:10E020000D94B2F10D94B2F10D94B2F10D94B2F1E0
:10E030000D94B2F10D94B2F10D94B2F10D94B2F1D0
:10E040000D94B2F10D94B2F10D94B2F10D94B2F1C0
:10E050000D94B2F10D94B2F10D94B2F10D94B2F1B0
:10E060000D94B2F10D94B2F10D94B2F10D94B2F1A0
:10E070000D94B2F10D94B2F10D94B2F10D94B2F190
:10E080000D94B2F10D94B2F10D94B2F10D94B2F180
:10E090000D94B2F10D94B2F10D94B2F10D94B2F170
:10E0A0000D94B2F10D94B2F10D94B2F10D94B2F160
:10E0B0000D94B2F10D94B2F10D94B2F10D94B2F150
:10E0C0000D94B2F10D94B2F10D94B2F10D94B2F140
:10E0D0000D94B2F10D94B2F10D94B2F10D94B2F130
:10E0E0000D94B2F141546D656761323536300041AF
:10E0F000726475696E6F206578706C6F72657220DE
:10E1000073746B3530305632206279204D4C530099
:10E11000426F6F746C6F616465723E004875683F52
:10E1200000436F6D70696C6564206F6E203D200048
:10E130004350552054797065202020203D20005FF9
:10E140005F4156525F415243485F5F3D2000415658
:10E1500052204C696243205665723D20004743437C
:10E160002056657273696F6E203D20004350552024
:10E1700049442020202020203D20004C6F7720663D
:10E18000757365202020203D20004869676820665F
:10E190007573652020203D200045787420667573D6
:10E1A00065202020203D20004C6F636B2066757336
:10E1B000652020203D20004D617220203720323024
:10E1C000313300312E362E3800342E332E350056A2
:10E1D00023202020414444522020206F7020636F70
:10E1E00064652020202020696E73747275637469E1
:10E1F0006F6E2061646472202020496E74657272B3
:10E20000757074006E6F20766563746F7200726A49
:10E210006D702020006A6D70200057686174207056
:10E220006F72743A00506F7274206E6F7420737541
:10E2300070706F72746564004D7573742062652030
:10E2400061206C6574746572002000577269747483
:10E25000696E672045450052656164696E672045B7
:10E26000450045452065727220636E743D00504F35
:10E27000525400303D5A65726F2061646472003FF1
:10E280003D43505520737461747300403D454550C3
:10E29000524F4D207465737400423D426C696E6B41
:10E2A000204C454400453D44756D70204545505215
:10E2B0004F4D00463D44756D7020464C415348001B
:10E2C000483D48656C70004C3D4C69737420492F83
:10E2D0004F20506F72747300513D51756974005234
:10E2E0003D44756D702052414D00563D73686F7707
:10E2F00020696E7465727275707420566563746FF0
:10E30000727300593D506F727420626C696E6B00BD
:10E310002A0011241FBECFEFD1E2DEBFCDBF01E046
:10E320000CBF12E0A0E0B2E0EEE1FDEF03E00BBFB6
:10E3300002C007900D92A030B107D9F712E0A0E01B
:10E34000B2E001C01D92AE30B107E1F70F9460F367
:10E350000D948DFE01E20EBF0FEF0DBF11241FBE05
:10E360000D9460F30D9400F020E030E040ED57E0B4
:10E3700005C0FA013197F1F72F5F3F4F2817390792
:10E38000C0F308959C01260F311DC901A0E0B0E043
:10E390002F5F3F4FABBFFC018791882361F08093D3
:10E3A000C6008091C00086FFFCCF8091C0008064D1
:10E3B0008093C000EACF08958DE08093C6008091DD
:10E3C000C00086FFFCCF8091C00080648093C000B5
:10E3D0008AE08093C6008091C00086FFFCCF8091C8
:10E3E000C00080648093C00008950F94C2F10F9420
:10E3F000DCF10895FC019081992359F09093C600B7
:10E400008091C00086FFFCCF8091C0008064809323
:10E41000C0003196992379F70895282F982F929567
:10E420009F70892F805D8A3308F0895F8093C600D2
:10E430008091C00086FFFCCF8091C00080648093F3
:10E44000C000822F8F70982F905D9A3308F0995FEB
:10E450009093C6008091C00086FFFCCF8091C000E1
:10E4600080648093C00008959C01FB01853691056E
:10E470001CF46330710594F0C90164E670E00F94F8
:10E480002EFE605D7F4F6093C6008091C00086FFC6
:10E49000FCCF8091C00080648093C0002B30310598
:10E4A00014F43297B4F0C90164E670E00F942EFEC4
:10E4B0006AE070E00F942EFE605D7F4F6093C600AF
:10E4C0008091C00086FFFCCF8091C0008064809363
:10E4D000C000C9016AE070E00F942EFEC0968093E0
:10E4E000C6008091C00086FFFCCF8091C000806490
:10E4F0008093C00008951F93182F8EE692EE60E07F
:10E500000F94C2F11093C6008091C00086FFFCCF2B
:10E510008091C00080648093C0000F94DCF11F9153
:10E5200008952F923F924F925F926F927F928F92B7
:10E530009F92AF92BF92CF92DF92EF92FF920F9392
:10E540001F93DF93CF93CDB7DEB762970FB6F894E2
:10E55000DEBF0FBECDBF382E622ECA01DB015C01CB
:10E560006D01772420E2222E2E010894411C511CBB
:10E570008BC081E0A81680E0B80681E0C80680E084
:10E58000D80628F0C601AA27BB270F940DF2BB2797
:10E59000AD2D9C2D8B2D0F940DF28A2D0F940DF225
:10E5A0002092C6008091C00086FFFCCF8091C00001
:10E5B00080648093C0009DE29093C6008091C0006B
:10E5C00086FFFCCF8091C00080648093C0002092C1
:10E5D000C6008091C00086FFFCCF8091C00080649F
:10E5E0008093C00019828601750188249924A1E0D6
:10E5F0003A1651F03A1620F0B2E03B1661F409C029
:10E600000BBFF701779007C0C7010F9477FE782EF4
:10E6100002C0F7017080872D0F940DF22092C60082
:10E620008091C00086FFFCCF8091C0008064809301
:10E63000C000872D8052F401EF70F0708F3520F408
:10E64000E40DF51D708204C0E40DF51D8EE280839B
:10E650000894E11CF11C011D111D0894811C911CE2
:10E6600090E18916910409F0C2CF80E190E0A0E02A
:10E67000B0E0A80EB91ECA1EDB1E198AC2010F9493
:10E68000FAF10F94DCF16A94662009F072CF629679
:10E690000FB6F894DEBF0FBECDBFCF91DF911F91B3
:10E6A0000F91FF90EF90DF90CF90BF90AF909F9031
:10E6B0008F907F906F905F904F903F902F90089534
:10E6C0002F923F924F925F926F927F928F929F9282
:10E6D000AF92BF92CF92DF92EF92FF920F931F9370
:10E6E000DF93CF93CDB7DEB7CD53D1400FB6F894BB
:10E6F000DEBF0FBECDBF01E20EBF0FEF0DBF94B75F
:10E70000F894A89514BE80916000886180936000A1
:10E7100010926000789493FF05C0E0910002F091A0
:10E7200001021995279A2F9A8091C00082608093E8
:10E73000C00080E18093C40088E18093C1000000A4
:10E74000EE24FF24870144E0A42EB12CCC24DD2448
:10E7500024C0C5010197F1F70894E11CF11C011DCB
:10E76000111D21E2E2162EE4F20620E0020720E06D
:10E77000120718F031E0C32ED12CC801B70127ECE5
:10E780003BE140E050E00F9441FE611571058105C9
:10E79000910519F485B1805885B98091C00087FD35
:10E7A00003C0C114D104A9F2A6014F5F5F4FC25E3E
:10E7B000DE4F59834883CE51D140C25EDE4F8881FF
:10E7C0009981CE51D140019711F00D9410FEC05D9A
:10E7D000DE4F19821882C053D14060E0C15DDE4F28
:10E7E0001882CF52D14088249924C35DDE4F19820C
:10E7F0001882CD52D140C05EDE4F188219821A8233
:10E800001B82C052D140CE5CDE4F188219821A8220
:10E810001B82C253D140EE24FF2487010BBFF701B6
:10E8200007911691C45CDE4F19830883CC53D14005
:10E830000D940BFEC25EDE4F28813981CE51D1404E
:10E840002130310509F52091C600C25EDE4F1982E4
:10E850001882CE51D14022C02F5F3F4F4F4F5F4FA4
:10E86000213082E138078AE7480780E0580780F0C6
:10E87000C45CDE4FE881F981CC53D140EF5FFF4F9C
:10E8800019F0EE27FF27099420E030E040E050E047
:10E890008091C00087FFE0CF2091C600C35DDE4FAE
:10E8A00048815981CD52D1404F5F5F4FC35DDE4FEC
:10E8B00059834883CD52D140213209F063C64A3092
:10E8C000510508F05FC60894811C911C53E0851621
:10E8D000910409F059C600E010E018C081E280936D
:10E8E000C6008091C00086FFFCCF8091C00080648C
:10E8F0008093C0002F5F3F4F2931310579F70F9486
:10E90000DCF10F5F1F4F0530110519F020E030E0FA
:10E91000E5CF10920A0210920B0210920C02109294
:10E920000D02109206021092070210920802109235
:10E930000902109202021092030210920402109235
:10E9400005028FEE90EE60E00F94F5F180E191EE1C
:10E9500060E00F94C2F18091C00087FFFCCF9091DE
:10E96000C600903608F09F759032B8F09093C600BC
:10E970008091C00086FFFCCF8091C00080648093AE
:10E98000C000A0E2A093C6008091C00086FFFCCF2B
:10E990008091C00080648093C000983409F4D7C18E
:10E9A0009934B8F4923409F459C1933458F490333B
:10E9B00019F1903308F4E3C59F33A1F1903409F0C5
:10E9C000DEC5BDC0953409F470C1963409F0D7C5D1
:10E9D00098C1923509F42BC2933538F49C3409F46C
:10E9E000F5C1913509F0CBC518C2963509F445C279
:10E9F000993509F0C4C567C483E792EE62E00F94CD
:10EA0000F5F110920602109207021092080210927D
:10EA1000090210920A0210920B0210920C0210923C
:10EA20000D0213C18FE792EE62E00F94F5F18FEEC5
:10EA300090EE60E00F94F5F181E291EE60E00F94CA
:10EA4000C2F187EB91EE60E00F94F5F180E391EE77
:10EA500060E00F94C2F184EE90EE60E00F94F5F167
:10EA60008FE391EE60E00F94C2F186E090E061E008
:10EA700070E00F9434F20F94DCF18DE591EE60E0DC
:10EA80000F94C2F189EC91EE60E00F94F5F18EE401
:10EA900091EE60E00F94C2F183EC91EE60E00F9490
:10EAA000F5F18CE691EE60E00F94C2F18EE10F94E7
:10EAB0000DF288E90F940DF281E00F940DF20F949E
:10EAC000DCF18BE791EE60E00F94C2F119E0E0E039
:10EAD000F0E010935700E4918E2F0F940DF20F94F5
:10EAE000DCF18AE891EE60E00F94C2F1E3E0F0E03F
:10EAF00010935700E4918E2F0F940DF20F94DCF1D8
:10EB000089E991EE60E00F94C2F1E2E0F0E0109349
:10EB10005700E4918E2F0F940DF20F94DCF188EAE8
:10EB200091EE60E00F94C2F1E1E0F0E01093570045
:10EB30001491812F0F940DF20F94DCF107CF8BE825
:10EB400092EE62E00F94F5F18BE492EE60E00F94A8
:10EB5000F5F10F94DCF100E010E019C0C8016F2D51
:10EB60000F947FFEFF2031F489E492EE60E00F9471
:10EB7000C2F10BC0F092C6008091C00086FFFCCFAE
:10EB80008091C00080648093C0000F5F1F4FC80158
:10EB900081519F41A0E0B0E0ABBFFC01F790BAE229
:10EBA000FB1621F0E2E000301E07C1F60F94DCF105
:10EBB0000F94DCF187E592EE60E00F94F5F10F948D
:10EBC000DCF1CC24DD2400E010E01EC0C8010F946D
:10EBD00077FEF82E882331F489E492EE60E00F94FA
:10EBE000C2F10BC08093C6008091C00086FFFCCFAD
:10EBF0008091C00080648093C000FE1419F00894D6
:10EC0000C11CD11C0F5F1F4FC80181519F41A0E063
:10EC1000B0E0ABBFFC01E790FAE2EF1621F022E092
:10EC20000030120799F60F94DCF10F94DCF182E6C4
:10EC300092EE60E00F94C2F1C60161E070E00F94C3
:10EC400034F20F94DCF10F94DCF110920202109276
:10EC50000302109204021092050278CE89E992EE26
:10EC600062E00F94F5F1279A2F9A16C02F9880E052
:10EC700090E0E0EDF7E03197F1F7019684369105E9
:10EC8000C1F72F9A80E090E0E0EDF7E03197F1F7DF
:10EC9000019684369105C1F78091C00087FFE6CFC9
:10ECA0008091C00087FFFCCF64C485EA92EE62E0E9
:10ECB0000F94F5F140910202509103026091040219
:10ECC0007091050281E020E10F9491F2809102029F
:10ECD00090910302A0910402B091050280509F4FD1
:10ECE000AF4FBF4F8093020290930302A0930402A0
:10ECF000B093050280509041A040B04008F426CE69
:10ED0000A4CF83EB92EE62E00F94F5F140910602FE
:10ED100050910702609108027091090280E020E1A1
:10ED20000F9491F28091060290910702A09108023F
:10ED3000B091090280509F4FAF4FBF4F80930602A2
:10ED400090930702A0930802B0930902FFCD80ECD4
:10ED500092EE62E00F94F5F183E792EE60E00F949B
:10ED6000F5F18FE792EE60E00F94F5F18BE892EE0B
:10ED700060E00F94F5F189E992EE60E00F94F5F10F
:10ED800085EA92EE60E00F94F5F183EB92EE60E09D
:10ED90000F94F5F180EC92EE60E00F94F5F187ECC2
:10EDA00092EE60E00F94F5F188ED92EE60E00F9442
:10EDB000F5F18FED92EE60E00F94F5F18AEE92EEB0
:10EDC00060E00F94F5F183E093EEBDCD87EC92EE19
:10EDD00062E00F94F5F181E40F947BF282E40F94EA
:10EDE0007BF283E40F947BF284E40F947BF285E45E
:10EDF0000F947BF286E40F947BF287E40F947BF20E
:10EE000088E40F947BF28AE40F947BF28BE40F94F6
:10EE10007BF28CE40F947BF299CD88ED92EE62E068
:10EE20000F94F5F1772473948824992409C48FED05
:10EE300092EE62E00F94F5F140910A0250910B02BC
:10EE400060910C0270910D0282E020E10F9491F22A
:10EE500080910A0290910B02A0910C02B0910D02D8
:10EE600080509F4FAF4FBF4F80930A0290930B0289
:10EE7000A0930C02B0930D0269CD8AEE92EE62E08F
:10EE80000F94F5F184EE90EE60E00F94F5F18FECC5
:10EE900091EE60E00F94F5F1662477244301CC5D98
:10EEA000DE4F19821882C452D140D401C301B695F5
:10EEB000A79597958795CA5DDE4F88839983AA8326
:10EEC000BB83C652D140CC5DDE4FA881B981C4520C
:10EED000D1401196CC5DDE4FB983A883C452D14096
:10EEE000CD0162E070E00F9434F2B0E2B093C6005E
:10EEF0008091C00086FFFCCF8091C0008064809329
:10EF0000C000EDE2E093C6008091C00086FFFCCF18
:10EF10008091C00080648093C000F0E2F093C6004E
:10EF20008091C00086FFFCCF8091C00080648093F8
:10EF3000C000CA5DDE4FE880F9800A811B81C6529D
:10EF4000D140BB27A12F902F8F2D0F940DF2CA5DBA
:10EF5000DE4F8881C652D1400F940DF2B0E2FB2EF5
:10EF6000F092C6008091C00086FFFCCF8091C00067
:10EF700080648093C0000DE30093C6008091C000C0
:10EF800086FFFCCF8091C00080648093C00010E2B7
:10EF90001093C6008091C00086FFFCCF8091C00016
:10EFA00080648093C0008BBEF3012791C65DDE4F65
:10EFB0002883CA52D140A22EBB24CC24DD2408943D
:10EFC000611C711C811C911C8BBEF3018791282E42
:10EFD0003324442455240894611C711C811C911C09
:10EFE0008BBEF3013791C55DDE4F3883CB52D140E4
:10EFF0000894611C711C811C911C8BBEF30147910C
:10F00000C45DDE4F4883CC52D140ADEFEA2EAFEF66
:10F01000FA2EAFEF0A2FAFEF1A2F6E0C7F1C801E57
:10F02000911E142D032DF22CEE24EA0CFB1C0C1D5A
:10F030001D1D0F940DF220E22093C6008091C000A8
:10F0400086FFFCCF8091C00080648093C000C65DC5
:10F05000DE4F8881CA52D1400F940DF230E23093D6
:10F06000C6008091C00086FFFCCF8091C000806404
:10F070008093C000C45DDE4F8881CC52D1400F9494
:10F080000DF240E24093C6008091C00086FFFCCFA5
:10F090008091C00080648093C000C55DDE4F888190
:10F0A000CB52D1400F940DF250E25093C6008091A4
:10F0B000C00086FFFCCF8091C00080648093C000B8
:10F0C0008FEFE8168FEFF80680E0080780E018075A
:10F0D00031F484E092EE60E00F94C2F1DFC0D80119
:10F0E000C7018070907CA070B0708050904CA040A0
:10F0F000B040D1F52FEF3FE340E050E0E222F322B1
:10F1000004231523CA5DDE4FA880B980CA80DB8046
:10F11000C652D140AE0CBF1CC01ED11EAA0CBB1CD7
:10F12000CC1CDD1C8EE092EE60E00F94C2F1BB2798
:10F13000A12F902F8F2D0F940DF28E2D0F940DF285
:10F1400030E23093C6008091C00086FFFCCF8091F2
:10F15000C00080648093C0004EE34093C60080915D
:10F16000C00086FFFCCF87C08EE09EEFA0E0B0E03D
:10F17000E822F9220A231B239CE0E91694E9F90608
:10F1800090E0090790E0190709F088C0C45DDE4FE0
:10F19000A881CC52D140EA2EFF2400E010E0102FCD
:10F1A0000F2DFE2CEE24C55DDE4FB881CB52D14031
:10F1B000EB0EF11C011D111DD601C501817090706F
:10F1C000A070B070DC0199278827E80EF91E0A1F8D
:10F1D0001B1F20EF30E040E050E0A222B322C42207
:10F1E000D52241E1AA0CBB1CCC1CDD1C4A95D1F7F1
:10F1F000EA0CFB1C0C1D1D1D81E090E0A0E0B0E0BE
:10F20000282239224A225B2235E1220C331C441C7D
:10F21000551C3A95D1F7E20CF31C041D151D57013E
:10F220006801AA0CBB1CCC1CDD1C85E192EE60E0E1
:10F230000F94C2F1C801AA27BB270F940DF2BB2778
:10F24000A12F902F8F2D0F940DF28E2D0F940DF274
:10F2500090E29093C6008091C00086FFFCCF809121
:10F26000C00080648093C000AEE3A093C60080918C
:10F27000C00086FFFCCF8091C00080648093C000F6
:10F28000C601AA27BB270F940DF2BB27AD2D9C2DDD
:10F290008B2D0F940DF28A2D0F940DF20F94DCF14B
:10F2A000CC5DDE4FE881F981C452D140F99709F471
:10F2B0004DCBF4E0EF2EF12C012D112D6E0C7F1CA7
:10F2C000801E911EF2CD83E093EE62E00F94F5F183
:10F2D0008AE192EE60E00F94C2F18091C00087FF56
:10F2E000FCCF1091C6001F751093C6008091C0001E
:10F2F00086FFFCCF8091C00080648093C0000F9493
:10F30000DCF1812F81548A3108F036C1163409F4BA
:10F3100095C0173490F4133409F44EC0143430F40B
:10F320001134F1F0123409F01DC130C0143409F465
:10F3300059C0153409F016C16BC01A3409F4C4C0A1
:10F340001B3438F4173409F48FC0183409F00AC19B
:10F35000A1C01B3409F4D2C01C3409F003C1E8C0B9
:10F360008FEF81B90DC082B1809582B980E090E0C5
:10F37000E0EDF7E03197F1F70196883C9105C1F790
:10F380008091C00087FFEFCF12B8EFC08FEF84B934
:10F390000DC085B1809585B980E090E0E0EDF7E0A3
:10F3A0003197F1F70196883C9105C1F78091C00033
:10F3B00087FFEFCF15B8D9C08FEF87B90DC088B1DF
:10F3C000809588B980E090E0E0EDF7E03197F1F7C3
:10F3D0000196883C9105C1F78091C00087FFEFCF6F
:10F3E00018B8C3C08FEF8AB90DC08BB180958BB9A7
:10F3F00080E090E0E0EDF7E03197F1F70196883C8E
:10F400009105C1F78091C00087FFEFCF1BB8ADC059
:10F410008FEF8DB90DC08EB180958EB980E090E0F0
:10F42000E0EDF7E03197F1F70196883C9105C1F7DF
:10F430008091C00087FFEFCF1EB897C08FEF80BBD1
:10F440000DC081B3809581BB80E090E0E0EDF7E0F6
:10F450003197F1F70196883C9105C1F78091C00082
:10F4600087FFEFCF11BA81C08FEF83BB0DC084B38C
:10F47000809584BB80E090E0E0EDF7E03197F1F714
:10F480000196883C9105C1F78091C00087FFEFCFBE
:10F4900014BA6BC08FEF809301010FC080910201FD
:10F4A00080958093020180E090E0E0EDF7E03197F5
:10F4B000F1F70196883C9105C1F78091C00087FF64
:10F4C000EDCF1092020151C08FEF809304010FC065
:10F4D0008091050180958093050180E090E0E0ED4A
:10F4E000F7E03197F1F70196883C9105C1F78091DB
:10F4F000C00087FFEDCF1092050137C08FEF8093DA
:10F5000007010FC08091080180958093080180E079
:10F5100090E0E0EDF7E03197F1F70196883C910536
:10F52000C1F78091C00087FFEDCF109208011DC088
:10F530008FEF80930A010FC080910B01809580931B
:10F540000B0180E090E0E0EDF7E03197F1F70196F4
:10F55000883C9105C1F78091C00087FFEDCF1092E4
:10F560000B0103C085E292EEEEC98091C00087FFD7
:10F57000FCCF8091C600EAC988E392EEE4C98CE131
:10F5800091EEE1C988249924933011F1943028F444
:10F59000913089F09230B8F408C0953061F195301F
:10F5A000F0F0963009F048C043C02B3109F042C951
:10F5B00091E06BE13FC96227C15DDE4F2883CF52E6
:10F5C000D14092E037C9B22FA0E0622793E032C960
:10F5D000822F90E0A82BB92B622794E02BC92E3004
:10F5E00009F039C3622795E0C05DDE4F19821882A9
:10F5F000C053D1401FC9E1E0F0E0EC0FFD1FC05D3A
:10F60000DE4F08811981C053D140E00FF11F2083E4
:10F610000F5F1F4FC05DDE4F19830883C053D14079
:10F6200062270A171B0709F005C9D80196E002C92D
:10F63000261709F010C303C0973009F0FBC87724E0
:10F640009981933109F412C19431C8F4963009F4C8
:10F65000D8C0973050F4923009F406C1933009F4C1
:10F660006DC0913009F059C253C0913109F477C08F
:10F67000923108F0BBC0903109F04FC2F5C098310B
:10F6800009F487C0993150F4953109F4EFC09531F0
:10F6900008F4C6C1963109F040C2C2C19A3109F4DA
:10F6A0006CC09A3108F491C09B3109F45BC09D3164
:10F6B00009F033C29D81903359F48F81882311F46E
:10F6C0009EE11CC0813011F091E018C098E916C08D
:10F6D000892F807591F0903539F4E0E0F0E089E011
:10F6E0008093570094910AC0983539F4E3E0F0E034
:10F6F00089E080935700949101C090E01A821B82A8
:10F700008D818C831D829E831F8227E030E009C299
:10F710001A8288E08B8381E48C8386E58D8382E581
:10F720008E8389E48F8383E5888780E589878FE5E9
:10F730008A8782E38B872BE030E0F3C18A818139AD
:10F7400041F0823941F0803911F48FE005C080E04A
:10F7500003C082E001C08AE01A828B8344C0772410
:10F76000739482C08D81882311F48EE12CC0813086
:10F7700011F081E028C088E926C01A82E1E0F0E0BB
:10F7800089E08093570084918B831C8224E030E0D1
:10F79000C8C18B81803589F48C81883039F4E2E0EE
:10F7A000F0E089E08093570084910DC0E0E0F0E044
:10F7B00089E080935700849106C0E3E0F0E089E09F
:10F7C0008093570084911A82DFCF8D81836C99E0FA
:10F7D000E1E0F0E0082E90935700E89507B600FCB2
:10F7E000FDCF1A821B8223E030E09BC180EC8A832C
:10F7F000CE5CDE4F188219821A821B82C253D1401E
:10F800008EC18A8190E0A0E0B0E0582F44273327D2
:10F8100022278B8190E0A0E0B0E0DC0199278827C7
:10F82000282B392B4A2B5B2B8D8190E0A0E0B0E098
:10F83000282B392B4A2B5B2B8C8190E0A0E0B0E089
:10F84000BA2FA92F982F8827282B392B4A2B5B2BCF
:10F85000220F331F441F551FC05EDE4F288339839C
:10F860004A835B83C052D1401A8259C13A81C95C34
:10F87000DE4F3883C753D140CA5CDE4F1882C6536F
:10F88000D1408B81C82EDD24CA5CDE4F488159816E
:10F89000C653D140C42AD52A933109F082C0CE5C28
:10F8A000DE4F88819981AA81BB81C253D1408050AB
:10F8B000904CA340B04030F583E0CE5CDE4FE88052
:10F8C000F9800A811B81C253D140F70100935B008C
:10F8D00080935700E89507B600FCFDCFCE5CDE4F65
:10F8E000088119812A813B81C253D14000501F4FAA
:10F8F0002F4F3F4FCE5CDE4F088319832A833B8313
:10F90000C253D140C05EDE4F488159816A817B81FC
:10F91000C052D140DE011B9631E08C9111962C91A2
:10F9200011971296C75CDE4F2883C953D140C85C3B
:10F93000DE4F1882C853D14090E0C85CDE4FE881AA
:10F94000F981C853D1408E2B9F2B0C01FA01609393
:10F950005B0030935700E89511244E5F5F4F6F4F67
:10F960007F4F0EEFE02E0FEFF02ECE0CDF1CC114F8
:10F97000D10499F685E0C05EDE4F088119812A81A5
:10F980003B81C052D140F80120935B008093570027
:10F99000E89507B600FCFDCF81E180935700E8951C
:10F9A00035C0C05EDE4F88819981AA81BB81C0527B
:10F9B000D140B695A795979587957C018601ABE0D8
:10F9C000AA2EB12CAC0EBD1E0BC0D5016D915D01F0
:10F9D000C7010F947FFE0894E11CF11C01501040F8
:10F9E0000115110591F7A60160E070E0440F551F65
:10F9F000661F771FC05EDE4FE880F9800A811B8199
:10FA0000C052D1404E0D5F1D601F711F1A82C05E33
:10FA1000DE4F488359836A837B83C052D1407FC0C5
:10FA2000FA80C55CDE4FF882CB53D140C65CDE4F16
:10FA30001882CA53D1408B81C82EDD24C65CDE4FAC
:10FA400008811981CA53D140C02AD12A1A828981DA
:10FA5000BE016D5F7F4F843121F59601C05EDE4FA0
:10FA6000E880F9800A811B81C052D1400BBFF701A9
:10FA700087919691DB018C9311969C936E5F7F4FDB
:10FA8000D801C7010296A11DB11DC05EDE4F88835B
:10FA90009983AA83BB83C052D14022503040F1F6F3
:10FAA00036C0C05EDE4F288139814A815B81C052F9
:10FAB000D1400894C108D108760100E010E0089414
:10FAC000C11CD11C0894E11CF11C011D111DE20E8A
:10FAD000F31E041F151F21BDBB27A52F942F832FB5
:10FAE00082BD2F5F3F4F4F4F5F4FF89A80B5DB01CC
:10FAF0008D93BD012E153F054007510761F7C05E8C
:10FB0000DE4F288339834A835B83C052D1409601FC
:10FB10002D5F3F4FFB01108204C080EC8A8322E0FE
:10FB200030E08BE18093C6008091C00086FFFCCF5F
:10FB30008091C00080648093C000C15DDE4FF88179
:10FB4000CF52D140F093C6008091C00086FFFCCF19
:10FB50008091C00080648093C000432F3093C60022
:10FB60008091C00086FFFCCF8091C00080648093AC
:10FB7000C000922F2093C6008091C00086FFFCCF6A
:10FB80008091C00080648093C0008EE08093C600A6
:10FB90008091C00086FFFCCF8091C000806480937C
:10FBA000C00065E1C15DDE4FE880CF52D1406E25D7
:10FBB00069276427FE01319610C090819093C6009A
:10FBC0008091C00086FFFCCF31968091C000806498
:10FBD0008093C0006927215030402115310569F715
:10FBE0006093C6008091C00086FFFCCF8091C0006A
:10FBF00080648093C00085B1805885B9772081F4F6
:10FC0000C15DDE4F0881CF52D1400F5FC15DDE4F35
:10FC10000883CF52D14090E0A0E0B0E00D941AF4F8
:10FC200027982F9880E090E020ED37E0F901319798
:10FC3000F1F7019684369105C9F700008091C00064
:10FC40008D7F8093C00081E180935700E895EE2777
:10FC5000FF270994FFCF90E00D941AF497FB092E2B
:10FC600007260AD077FD04D02ED006D000201AF443
:10FC7000709561957F4F0895F6F7909581959F4F08
:10FC80000895A1E21A2EAA1BBB1BFD010DC0AA1FDD
:10FC9000BB1FEE1FFF1FA217B307E407F50720F0F5
:10FCA000A21BB30BE40BF50B661F771F881F991F70
:10FCB0001A9469F760957095809590959B01AC01B9
:10FCC000BD01CF010895AA1BBB1B51E107C0AA1FAC
:10FCD000BB1FA617B70710F0A61BB70B881F991FED
:10FCE0005A95A9F780959095BC01CD010895F99991
:10FCF000FECF92BD81BDF89A992780B50895262F31
:10FD0000F999FECF1FBA92BD81BD20BD0FB6F89400
:0EFD1000FA9AF99A0FBE01960895F894FFCF63
:040000033000E000E9
:00000001FF